{
  "address": "0x03bD2e719b6ec02927eeffdfbFfe90c2CB274ba2",
  "abi": [
    {
      "inputs": [
        {
          "internalType": "uint256",
          "name": "_defaultBps",
          "type": "uint256"
        }
      ],
      "stateMutability": "nonpayable",
      "type": "constructor"
    },
    {
      "anonymous": false,
      "inputs": [
        {
          "indexed": true,
          "internalType": "address",
          "name": "previousOwner",
          "type": "address"
        },
        {
          "indexed": true,
          "internalType": "address",
          "name": "newOwner",
          "type": "address"
        }
      ],
      "name": "OwnershipTransferred",
      "type": "event"
    },
    {
      "anonymous": false,
      "inputs": [
        {
          "indexed": true,
          "internalType": "address",
          "name": "oft",
          "type": "address"
        },
        {
          "indexed": false,
          "internalType": "address",
          "name": "to",
          "type": "address"
        },
        {
          "indexed": false,
          "internalType": "uint256",
          "name": "amount",
          "type": "uint256"
        }
      ],
      "name": "WrapperFeeWithdrawn",
      "type": "event"
    },
    {
      "anonymous": false,
      "inputs": [
        {
          "indexed": true,
          "internalType": "bytes2",
          "name": "partnerId",
          "type": "bytes2"
        },
        {
          "indexed": false,
          "internalType": "uint256",
          "name": "amount",
          "type": "uint256"
        },
        {
          "indexed": false,
          "internalType": "uint256",
          "name": "wrapperFee",
          "type": "uint256"
        }
      ],
      "name": "WrapperSwapped",
      "type": "event"
    },
    {
      "inputs": [],
      "name": "BPS_DENOMINATOR",
      "outputs": [
        {
          "internalType": "uint256",
          "name": "",
          "type": "uint256"
        }
      ],
      "stateMutability": "view",
      "type": "function"
    },
    {
      "inputs": [],
      "name": "MAX_UINT",
      "outputs": [
        {
          "internalType": "uint256",
          "name": "",
          "type": "uint256"
        }
      ],
      "stateMutability": "view",
      "type": "function"
    },
    {
      "inputs": [],
      "name": "defaultBps",
      "outputs": [
        {
          "internalType": "uint256",
          "name": "",
          "type": "uint256"
        }
      ],
      "stateMutability": "view",
      "type": "function"
    },
    {
      "inputs": [
        {
          "internalType": "address",
          "name": "_oft",
          "type": "address"
        },
        {
          "internalType": "uint16",
          "name": "_dstChainId",
          "type": "uint16"
        },
        {
          "internalType": "bytes",
          "name": "_toAddress",
          "type": "bytes"
        },
        {
          "internalType": "uint256",
          "name": "_amount",
          "type": "uint256"
        },
        {
          "internalType": "bool",
          "name": "_useZro",
          "type": "bool"
        },
        {
          "internalType": "bytes",
          "name": "_adapterParams",
          "type": "bytes"
        },
        {
          "components": [
            {
              "internalType": "uint256",
              "name": "callerBps",
              "type": "uint256"
            },
            {
              "internalType": "address",
              "name": "caller",
              "type": "address"
            },
            {
              "internalType": "bytes2",
              "name": "partnerId",
              "type": "bytes2"
            }
          ],
          "internalType": "struct IOFTWrapper.FeeObj",
          "name": "_feeObj",
          "type": "tuple"
        }
      ],
      "name": "estimateSendFee",
      "outputs": [
        {
          "internalType": "uint256",
          "name": "nativeFee",
          "type": "uint256"
        },
        {
          "internalType": "uint256",
          "name": "zroFee",
          "type": "uint256"
        }
      ],
      "stateMutability": "view",
      "type": "function"
    },
    {
      "inputs": [
        {
          "internalType": "address",
          "name": "_oft",
          "type": "address"
        },
        {
          "internalType": "uint256",
          "name": "_amount",
          "type": "uint256"
        },
        {
          "internalType": "uint256",
          "name": "_callerBps",
          "type": "uint256"
        }
      ],
      "name": "getAmountAndFees",
      "outputs": [
        {
          "internalType": "uint256",
          "name": "amount",
          "type": "uint256"
        },
        {
          "internalType": "uint256",
          "name": "wrapperFee",
          "type": "uint256"
        },
        {
          "internalType": "uint256",
          "name": "callerFee",
          "type": "uint256"
        }
      ],
      "stateMutability": "view",
      "type": "function"
    },
    {
      "inputs": [
        {
          "internalType": "address",
          "name": "",
          "type": "address"
        }
      ],
      "name": "oftBps",
      "outputs": [
        {
          "internalType": "uint256",
          "name": "",
          "type": "uint256"
        }
      ],
      "stateMutability": "view",
      "type": "function"
    },
    {
      "inputs": [],
      "name": "owner",
      "outputs": [
        {
          "internalType": "address",
          "name": "",
          "type": "address"
        }
      ],
      "stateMutability": "view",
      "type": "function"
    },
    {
      "inputs": [],
      "name": "renounceOwnership",
      "outputs": [],
      "stateMutability": "nonpayable",
      "type": "function"
    },
    {
      "inputs": [
        {
          "internalType": "address",
          "name": "_oft",
          "type": "address"
        },
        {
          "internalType": "uint16",
          "name": "_dstChainId",
          "type": "uint16"
        },
        {
          "internalType": "bytes",
          "name": "_toAddress",
          "type": "bytes"
        },
        {
          "internalType": "uint256",
          "name": "_amount",
          "type": "uint256"
        },
        {
          "internalType": "uint256",
          "name": "_minAmount",
          "type": "uint256"
        },
        {
          "internalType": "address payable",
          "name": "_refundAddress",
          "type": "address"
        },
        {
          "internalType": "address",
          "name": "_zroPaymentAddress",
          "type": "address"
        },
        {
          "internalType": "bytes",
          "name": "_adapterParams",
          "type": "bytes"
        },
        {
          "components": [
            {
              "internalType": "uint256",
              "name": "callerBps",
              "type": "uint256"
            },
            {
              "internalType": "address",
              "name": "caller",
              "type": "address"
            },
            {
              "internalType": "bytes2",
              "name": "partnerId",
              "type": "bytes2"
            }
          ],
          "internalType": "struct IOFTWrapper.FeeObj",
          "name": "_feeObj",
          "type": "tuple"
        }
      ],
      "name": "sendOFT",
      "outputs": [],
      "stateMutability": "payable",
      "type": "function"
    },
    {
      "inputs": [
        {
          "internalType": "uint256",
          "name": "_defaultBps",
          "type": "uint256"
        }
      ],
      "name": "setDefaultBps",
      "outputs": [],
      "stateMutability": "nonpayable",
      "type": "function"
    },
    {
      "inputs": [
        {
          "internalType": "address",
          "name": "_oft",
          "type": "address"
        },
        {
          "internalType": "uint256",
          "name": "_bps",
          "type": "uint256"
        }
      ],
      "name": "setOFTBps",
      "outputs": [],
      "stateMutability": "nonpayable",
      "type": "function"
    },
    {
      "inputs": [
        {
          "internalType": "address",
          "name": "newOwner",
          "type": "address"
        }
      ],
      "name": "transferOwnership",
      "outputs": [],
      "stateMutability": "nonpayable",
      "type": "function"
    },
    {
      "inputs": [
        {
          "internalType": "address",
          "name": "_oft",
          "type": "address"
        },
        {
          "internalType": "address",
          "name": "_to",
          "type": "address"
        },
        {
          "internalType": "uint256",
          "name": "_amount",
          "type": "uint256"
        }
      ],
      "name": "withdrawFees",
      "outputs": [],
      "stateMutability": "nonpayable",
      "type": "function"
    }
  ],
  "transactionHash": "0x109e5ca7ec9195e5eb6a345f04f1e37ce35eaf10ebb2ad7555583ee53921847e",
  "args": [
    2
  ],
  "numDeployments": 1,
  "solcInputHash": "0b82572105842bbada03f63ae6b44cee",
  "bytecode": "0x608060405234801561001057600080fd5b506040516112e43803806112e483398101604081905261002f916100e9565b61003833610099565b6001805561271081106100915760405162461bcd60e51b815260206004820152601e60248201527f4f4654577261707065723a2064656661756c74427073203e3d20313030250000604482015260640160405180910390fd5b600255610102565b600080546001600160a01b038381166001600160a01b0319831681178455604051919092169283917f8be0079c531659141344cd1fd0a4f28419497f9722a3daafe3b4186f6b6457e09190a35050565b6000602082840312156100fb57600080fd5b5051919050565b6111d3806101116000396000f3fe6080604052600436106100c25760003560e01c8063a46d74bc1161007f578063e1bafc8011610059578063e1bafc8014610200578063e55dc4e614610235578063e5b5019a14610255578063f2fde38b1461026b57600080fd5b8063a46d74bc146101b4578063d1b308dc146101d4578063e1a45218146101ea57600080fd5b80630c3d2756146100c757806317696f64146100e9578063498eff6414610129578063715018a61461013c5780637a751182146101515780638da5cb5b1461018c575b600080fd5b3480156100d357600080fd5b506100e76100e2366004610c4d565b61028b565b005b3480156100f557600080fd5b50610109610104366004610c79565b610311565b604080519384526020840192909252908201526060015b60405180910390f35b6100e7610137366004610d21565b610467565b34801561014857600080fd5b506100e7610567565b34801561015d57600080fd5b5061017e61016c366004610e05565b60036020526000908152604090205481565b604051908152602001610120565b34801561019857600080fd5b506000546040516001600160a01b039091168152602001610120565b3480156101c057600080fd5b506100e76101cf366004610e29565b61057b565b3480156101e057600080fd5b5061017e60025481565b3480156101f657600080fd5b5061017e61271081565b34801561020c57600080fd5b5061022061021b366004610e50565b6105d9565b60408051928352602083019190915201610120565b34801561024157600080fd5b506100e7610250366004610f13565b610679565b34801561026157600080fd5b5061017e60001981565b34801561027757600080fd5b506100e7610286366004610e05565b6106e0565b610293610759565b6127108110806102a4575060001981145b6102f55760405162461bcd60e51b815260206004820181905260248201527f4f4654577261707065723a206f66744270735b5f6f66745d203e3d203130302560448201526064015b60405180910390fd5b6001600160a01b03909116600090815260036020526040902055565b6001600160a01b038316600090815260036020526040812054819081908190600019141561034157506000610383565b6001600160a01b0387166000908152600360205260409020541561037e57506001600160a01b038616600090815260036020526040902054610383565b506002545b6127106103908683610f6a565b106103dd5760405162461bcd60e51b815260206004820152601b60248201527f4f4654577261707065723a2046656520627073203e3d2031303025000000000060448201526064016102ec565b600081116103ec576000610403565b6127106103f98288610f82565b6104039190610fa1565b92506000851161041457600061042b565b6127106104218688610f82565b61042b9190610fa1565b9150600083118061043c5750600082115b610446578561045b565b816104518488610fc3565b61045b9190610fc3565b93505093509350939050565b61046f6107b3565b60008061047e8d8a8a8661080d565b915091508c6001600160a01b0316635190563634338f8f8f888e8e8e8e6040518b63ffffffff1660e01b81526004016104bf99989796959493929190611003565b6000604051808303818588803b1580156104d857600080fd5b505af11580156104ec573d6000803e3d6000fd5b50610503935050606086019150506040850161106a565b6001600160f01b0319167fd7a19833416f235671ee3d7c85556b1e249ab744bdf22b2b76c46c23998ab26b8a83604051610547929190918252602082015260400190565b60405180910390a2505061055a60018055565b5050505050505050505050565b61056f610759565b61057960006108d3565b565b610583610759565b61271081106105d45760405162461bcd60e51b815260206004820152601e60248201527f4f4654577261707065723a2064656661756c74427073203e3d2031303025000060448201526064016102ec565b600255565b600080806105e98c898635610311565b5050604051632a205e3d60e01b81529091506001600160a01b038d1690632a205e3d90610626908e908e908e9087908e908e908e90600401611094565b6040805180830381865afa158015610642573d6000803e3d6000fd5b505050506040513d601f19601f8201168201806040525081019061066691906110e1565b9250925050995099975050505050505050565b610681610759565b6106956001600160a01b0384168383610923565b604080516001600160a01b038481168252602082018490528516917ff6514f9f283faac4cf3f3a6a702c116227ad0f2c727fb336e4c10b418bc6d613910160405180910390a2505050565b6106e8610759565b6001600160a01b03811661074d5760405162461bcd60e51b815260206004820152602660248201527f4f776e61626c653a206e6577206f776e657220697320746865207a65726f206160448201526564647265737360d01b60648201526084016102ec565b610756816108d3565b50565b6000546001600160a01b031633146105795760405162461bcd60e51b815260206004820181905260248201527f4f776e61626c653a2063616c6c6572206973206e6f7420746865206f776e657260448201526064016102ec565b600260015414156108065760405162461bcd60e51b815260206004820152601f60248201527f5265656e7472616e637947756172643a207265656e7472616e742063616c6c0060448201526064016102ec565b6002600155565b60008080808061081f89898835610311565b925092509250868310156108885760405162461bcd60e51b815260206004820152602a60248201527f4f4654577261707065723a20616d6f756e7420746f207472616e73666572203c604482015269081b5a5b905b5bdd5b9d60b21b60648201526084016102ec565b8861089e6001600160a01b03821633308661098b565b6108c4336108b260408a0160208b01610e05565b6001600160a01b03841691908561098b565b50919890975095505050505050565b600080546001600160a01b038381166001600160a01b0319831681178455604051919092169283917f8be0079c531659141344cd1fd0a4f28419497f9722a3daafe3b4186f6b6457e09190a35050565b6040516001600160a01b03831660248201526044810182905261098690849063a9059cbb60e01b906064015b60408051601f198184030181529190526020810180516001600160e01b03166001600160e01b0319909316929092179091526109c9565b505050565b6040516001600160a01b03808516602483015283166044820152606481018290526109c39085906323b872dd60e01b9060840161094f565b50505050565b6000610a1e826040518060400160405280602081526020017f5361666545524332303a206c6f772d6c6576656c2063616c6c206661696c6564815250856001600160a01b0316610a9b9092919063ffffffff16565b8051909150156109865780806020019051810190610a3c9190611105565b6109865760405162461bcd60e51b815260206004820152602a60248201527f5361666545524332303a204552433230206f7065726174696f6e20646964206e6044820152691bdd081cdd58d8d9595960b21b60648201526084016102ec565b6060610aaa8484600085610ab2565b949350505050565b606082471015610b135760405162461bcd60e51b815260206004820152602660248201527f416464726573733a20696e73756666696369656e742062616c616e636520666f6044820152651c8818d85b1b60d21b60648201526084016102ec565b600080866001600160a01b03168587604051610b2f919061114e565b60006040518083038185875af1925050503d8060008114610b6c576040519150601f19603f3d011682016040523d82523d6000602084013e610b71565b606091505b5091509150610b8287838387610b8d565b979650505050505050565b60608315610bf9578251610bf2576001600160a01b0385163b610bf25760405162461bcd60e51b815260206004820152601d60248201527f416464726573733a2063616c6c20746f206e6f6e2d636f6e747261637400000060448201526064016102ec565b5081610aaa565b610aaa8383815115610c0e5781518083602001fd5b8060405162461bcd60e51b81526004016102ec919061116a565b6001600160a01b038116811461075657600080fd5b8035610c4881610c28565b919050565b60008060408385031215610c6057600080fd5b8235610c6b81610c28565b946020939093013593505050565b600080600060608486031215610c8e57600080fd5b8335610c9981610c28565b95602085013595506040909401359392505050565b803561ffff81168114610c4857600080fd5b60008083601f840112610cd257600080fd5b50813567ffffffffffffffff811115610cea57600080fd5b602083019150836020828501011115610d0257600080fd5b9250929050565b600060608284031215610d1b57600080fd5b50919050565b60008060008060008060008060008060006101608c8e031215610d4357600080fd5b610d4d8c35610c28565b8b359a50610d5d60208d01610cae565b995067ffffffffffffffff8060408e01351115610d7957600080fd5b610d898e60408f01358f01610cc0565b909a50985060608d0135975060808d01359650610da960a08e0135610c28565b60a08d01359550610dbc60c08e01610c3d565b94508060e08e01351115610dcf57600080fd5b50610de08d60e08e01358e01610cc0565b9093509150610df38d6101008e01610d09565b90509295989b509295989b9093969950565b600060208284031215610e1757600080fd5b8135610e2281610c28565b9392505050565b600060208284031215610e3b57600080fd5b5035919050565b801515811461075657600080fd5b60008060008060008060008060006101208a8c031215610e6f57600080fd5b8935610e7a81610c28565b9850610e8860208b01610cae565b975060408a013567ffffffffffffffff80821115610ea557600080fd5b610eb18d838e01610cc0565b909950975060608c0135965060808c01359150610ecd82610e42565b90945060a08b01359080821115610ee357600080fd5b50610ef08c828d01610cc0565b9094509250610f0490508b60c08c01610d09565b90509295985092959850929598565b600080600060608486031215610f2857600080fd5b8335610f3381610c28565b92506020840135610f4381610c28565b929592945050506040919091013590565b634e487b7160e01b600052601160045260246000fd5b60008219821115610f7d57610f7d610f54565b500190565b6000816000190483118215151615610f9c57610f9c610f54565b500290565b600082610fbe57634e487b7160e01b600052601260045260246000fd5b500490565b600082821015610fd557610fd5610f54565b500390565b81835281816020850137506000828201602090810191909152601f909101601f19169091010190565b600060018060a01b03808c16835261ffff8b16602084015260e0604084015261103060e084018a8c610fda565b886060850152818816608085015281871660a085015283810360c0850152611059818688610fda565b9d9c50505050505050505050505050565b60006020828403121561107c57600080fd5b81356001600160f01b031981168114610e2257600080fd5b61ffff8816815260a0602082015260006110b260a08301888a610fda565b866040840152851515606084015282810360808401526110d3818587610fda565b9a9950505050505050505050565b600080604083850312156110f457600080fd5b505080516020909101519092909150565b60006020828403121561111757600080fd5b8151610e2281610e42565b60005b8381101561113d578181015183820152602001611125565b838111156109c35750506000910152565b60008251611160818460208701611122565b9190910192915050565b6020815260008251806020840152611189816040850160208701611122565b601f01601f1916919091016040019291505056fea2646970667358221220fcbd5b18d0ca13601b3bba9ccf410a98f8d3f5708f2d6741c9183142180ceac664736f6c634300080c0033",
  "devdoc": {
    "kind": "dev",
    "methods": {
      "owner()": {
        "details": "Returns the address of the current owner."
      },
      "renounceOwnership()": {
        "details": "Leaves the contract without owner. It will not be possible to call `onlyOwner` functions anymore. Can only be called by the current owner. NOTE: Renouncing ownership will leave the contract without an owner, thereby removing any functionality that is only available to the owner."
      },
      "transferOwnership(address)": {
        "details": "Transfers ownership of the contract to a new account (`newOwner`). Can only be called by the current owner."
      }
    },
    "version": 1
  },
  "userdoc": {
    "kind": "user",
    "methods": {},
    "version": 1
  },
  "storageLayout": {
    "storage": [
      {
        "astId": 3466,
        "contract": "contracts/OFTWrapper.sol:OFTWrapper",
        "label": "_owner",
        "offset": 0,
        "slot": "0",
        "type": "t_address"
      },
      {
        "astId": 3582,
        "contract": "contracts/OFTWrapper.sol:OFTWrapper",
        "label": "_status",
        "offset": 0,
        "slot": "1",
        "type": "t_uint256"
      },
      {
        "astId": 5049,
        "contract": "contracts/OFTWrapper.sol:OFTWrapper",
        "label": "defaultBps",
        "offset": 0,
        "slot": "2",
        "type": "t_uint256"
      },
      {
        "astId": 5053,
        "contract": "contracts/OFTWrapper.sol:OFTWrapper",
        "label": "oftBps",
        "offset": 0,
        "slot": "3",
        "type": "t_mapping(t_address,t_uint256)"
      }
    ],
    "types": {
      "t_address": {
        "encoding": "inplace",
        "label": "address",
        "numberOfBytes": "20"
      },
      "t_mapping(t_address,t_uint256)": {
        "encoding": "mapping",
        "key": "t_address",
        "label": "mapping(address => uint256)",
        "numberOfBytes": "32",
        "value": "t_uint256"
      },
      "t_uint256": {
        "encoding": "inplace",
        "label": "uint256",
        "numberOfBytes": "32"
      }
    }
  }
}