{
  "address": "0x3b4DF7233d2d9ae4062B996A9694d0DFC556181e",
  "abi": [
    {
      "inputs": [
        {
          "internalType": "uint256",
          "name": "_defaultBps",
          "type": "uint256"
        }
      ],
      "stateMutability": "nonpayable",
      "type": "constructor"
    },
    {
      "anonymous": false,
      "inputs": [
        {
          "indexed": true,
          "internalType": "address",
          "name": "previousOwner",
          "type": "address"
        },
        {
          "indexed": true,
          "internalType": "address",
          "name": "newOwner",
          "type": "address"
        }
      ],
      "name": "OwnershipTransferred",
      "type": "event"
    },
    {
      "anonymous": false,
      "inputs": [
        {
          "indexed": true,
          "internalType": "address",
          "name": "oft",
          "type": "address"
        },
        {
          "indexed": false,
          "internalType": "address",
          "name": "to",
          "type": "address"
        },
        {
          "indexed": false,
          "internalType": "uint256",
          "name": "amount",
          "type": "uint256"
        }
      ],
      "name": "WrapperFeeWithdrawn",
      "type": "event"
    },
    {
      "anonymous": false,
      "inputs": [
        {
          "indexed": true,
          "internalType": "bytes2",
          "name": "partnerId",
          "type": "bytes2"
        },
        {
          "indexed": false,
          "internalType": "address",
          "name": "token",
          "type": "address"
        },
        {
          "indexed": false,
          "internalType": "uint256",
          "name": "wrapperFee",
          "type": "uint256"
        },
        {
          "indexed": false,
          "internalType": "uint256",
          "name": "callerFee",
          "type": "uint256"
        }
      ],
      "name": "WrapperFees",
      "type": "event"
    },
    {
      "inputs": [],
      "name": "BPS_DENOMINATOR",
      "outputs": [
        {
          "internalType": "uint256",
          "name": "",
          "type": "uint256"
        }
      ],
      "stateMutability": "view",
      "type": "function"
    },
    {
      "inputs": [],
      "name": "MAX_UINT",
      "outputs": [
        {
          "internalType": "uint256",
          "name": "",
          "type": "uint256"
        }
      ],
      "stateMutability": "view",
      "type": "function"
    },
    {
      "inputs": [],
      "name": "defaultBps",
      "outputs": [
        {
          "internalType": "uint256",
          "name": "",
          "type": "uint256"
        }
      ],
      "stateMutability": "view",
      "type": "function"
    },
    {
      "inputs": [
        {
          "internalType": "address",
          "name": "_oft",
          "type": "address"
        },
        {
          "internalType": "uint16",
          "name": "_dstChainId",
          "type": "uint16"
        },
        {
          "internalType": "bytes",
          "name": "_toAddress",
          "type": "bytes"
        },
        {
          "internalType": "uint256",
          "name": "_amount",
          "type": "uint256"
        },
        {
          "internalType": "bool",
          "name": "_useZro",
          "type": "bool"
        },
        {
          "internalType": "bytes",
          "name": "_adapterParams",
          "type": "bytes"
        },
        {
          "components": [
            {
              "internalType": "uint256",
              "name": "callerBps",
              "type": "uint256"
            },
            {
              "internalType": "address",
              "name": "caller",
              "type": "address"
            },
            {
              "internalType": "bytes2",
              "name": "partnerId",
              "type": "bytes2"
            }
          ],
          "internalType": "struct IOFTWrapper.FeeObj",
          "name": "_feeObj",
          "type": "tuple"
        }
      ],
      "name": "estimateSendFee",
      "outputs": [
        {
          "internalType": "uint256",
          "name": "nativeFee",
          "type": "uint256"
        },
        {
          "internalType": "uint256",
          "name": "zroFee",
          "type": "uint256"
        }
      ],
      "stateMutability": "view",
      "type": "function"
    },
    {
      "inputs": [
        {
          "internalType": "address",
          "name": "_oft",
          "type": "address"
        },
        {
          "internalType": "uint16",
          "name": "_dstChainId",
          "type": "uint16"
        },
        {
          "internalType": "bytes32",
          "name": "_toAddress",
          "type": "bytes32"
        },
        {
          "internalType": "uint256",
          "name": "_amount",
          "type": "uint256"
        },
        {
          "internalType": "bool",
          "name": "_useZro",
          "type": "bool"
        },
        {
          "internalType": "bytes",
          "name": "_adapterParams",
          "type": "bytes"
        },
        {
          "components": [
            {
              "internalType": "uint256",
              "name": "callerBps",
              "type": "uint256"
            },
            {
              "internalType": "address",
              "name": "caller",
              "type": "address"
            },
            {
              "internalType": "bytes2",
              "name": "partnerId",
              "type": "bytes2"
            }
          ],
          "internalType": "struct IOFTWrapper.FeeObj",
          "name": "_feeObj",
          "type": "tuple"
        }
      ],
      "name": "estimateSendFeeV2",
      "outputs": [
        {
          "internalType": "uint256",
          "name": "nativeFee",
          "type": "uint256"
        },
        {
          "internalType": "uint256",
          "name": "zroFee",
          "type": "uint256"
        }
      ],
      "stateMutability": "view",
      "type": "function"
    },
    {
      "inputs": [
        {
          "internalType": "address",
          "name": "_token",
          "type": "address"
        },
        {
          "internalType": "uint256",
          "name": "_amount",
          "type": "uint256"
        },
        {
          "internalType": "uint256",
          "name": "_callerBps",
          "type": "uint256"
        }
      ],
      "name": "getAmountAndFees",
      "outputs": [
        {
          "internalType": "uint256",
          "name": "amount",
          "type": "uint256"
        },
        {
          "internalType": "uint256",
          "name": "wrapperFee",
          "type": "uint256"
        },
        {
          "internalType": "uint256",
          "name": "callerFee",
          "type": "uint256"
        }
      ],
      "stateMutability": "view",
      "type": "function"
    },
    {
      "inputs": [
        {
          "internalType": "address",
          "name": "",
          "type": "address"
        }
      ],
      "name": "oftBps",
      "outputs": [
        {
          "internalType": "uint256",
          "name": "",
          "type": "uint256"
        }
      ],
      "stateMutability": "view",
      "type": "function"
    },
    {
      "inputs": [],
      "name": "owner",
      "outputs": [
        {
          "internalType": "address",
          "name": "",
          "type": "address"
        }
      ],
      "stateMutability": "view",
      "type": "function"
    },
    {
      "inputs": [],
      "name": "renounceOwnership",
      "outputs": [],
      "stateMutability": "nonpayable",
      "type": "function"
    },
    {
      "inputs": [
        {
          "internalType": "address",
          "name": "_oft",
          "type": "address"
        },
        {
          "internalType": "uint16",
          "name": "_dstChainId",
          "type": "uint16"
        },
        {
          "internalType": "bytes",
          "name": "_toAddress",
          "type": "bytes"
        },
        {
          "internalType": "uint256",
          "name": "_amount",
          "type": "uint256"
        },
        {
          "internalType": "uint256",
          "name": "_minAmount",
          "type": "uint256"
        },
        {
          "internalType": "address payable",
          "name": "_refundAddress",
          "type": "address"
        },
        {
          "internalType": "address",
          "name": "_zroPaymentAddress",
          "type": "address"
        },
        {
          "internalType": "bytes",
          "name": "_adapterParams",
          "type": "bytes"
        },
        {
          "components": [
            {
              "internalType": "uint256",
              "name": "callerBps",
              "type": "uint256"
            },
            {
              "internalType": "address",
              "name": "caller",
              "type": "address"
            },
            {
              "internalType": "bytes2",
              "name": "partnerId",
              "type": "bytes2"
            }
          ],
          "internalType": "struct IOFTWrapper.FeeObj",
          "name": "_feeObj",
          "type": "tuple"
        }
      ],
      "name": "sendOFT",
      "outputs": [],
      "stateMutability": "payable",
      "type": "function"
    },
    {
      "inputs": [
        {
          "internalType": "address",
          "name": "_oft",
          "type": "address"
        },
        {
          "internalType": "uint16",
          "name": "_dstChainId",
          "type": "uint16"
        },
        {
          "internalType": "bytes32",
          "name": "_toAddress",
          "type": "bytes32"
        },
        {
          "internalType": "uint256",
          "name": "_amount",
          "type": "uint256"
        },
        {
          "internalType": "uint256",
          "name": "_minAmount",
          "type": "uint256"
        },
        {
          "components": [
            {
              "internalType": "address payable",
              "name": "refundAddress",
              "type": "address"
            },
            {
              "internalType": "address",
              "name": "zroPaymentAddress",
              "type": "address"
            },
            {
              "internalType": "bytes",
              "name": "adapterParams",
              "type": "bytes"
            }
          ],
          "internalType": "struct ICommonOFT.LzCallParams",
          "name": "_callParams",
          "type": "tuple"
        },
        {
          "components": [
            {
              "internalType": "uint256",
              "name": "callerBps",
              "type": "uint256"
            },
            {
              "internalType": "address",
              "name": "caller",
              "type": "address"
            },
            {
              "internalType": "bytes2",
              "name": "partnerId",
              "type": "bytes2"
            }
          ],
          "internalType": "struct IOFTWrapper.FeeObj",
          "name": "_feeObj",
          "type": "tuple"
        }
      ],
      "name": "sendOFTFeeV2",
      "outputs": [],
      "stateMutability": "payable",
      "type": "function"
    },
    {
      "inputs": [
        {
          "internalType": "address",
          "name": "_oft",
          "type": "address"
        },
        {
          "internalType": "uint16",
          "name": "_dstChainId",
          "type": "uint16"
        },
        {
          "internalType": "bytes32",
          "name": "_toAddress",
          "type": "bytes32"
        },
        {
          "internalType": "uint256",
          "name": "_amount",
          "type": "uint256"
        },
        {
          "internalType": "uint256",
          "name": "_minAmount",
          "type": "uint256"
        },
        {
          "components": [
            {
              "internalType": "address payable",
              "name": "refundAddress",
              "type": "address"
            },
            {
              "internalType": "address",
              "name": "zroPaymentAddress",
              "type": "address"
            },
            {
              "internalType": "bytes",
              "name": "adapterParams",
              "type": "bytes"
            }
          ],
          "internalType": "struct ICommonOFT.LzCallParams",
          "name": "_callParams",
          "type": "tuple"
        },
        {
          "components": [
            {
              "internalType": "uint256",
              "name": "callerBps",
              "type": "uint256"
            },
            {
              "internalType": "address",
              "name": "caller",
              "type": "address"
            },
            {
              "internalType": "bytes2",
              "name": "partnerId",
              "type": "bytes2"
            }
          ],
          "internalType": "struct IOFTWrapper.FeeObj",
          "name": "_feeObj",
          "type": "tuple"
        }
      ],
      "name": "sendOFTV2",
      "outputs": [],
      "stateMutability": "payable",
      "type": "function"
    },
    {
      "inputs": [
        {
          "internalType": "address",
          "name": "_proxyOft",
          "type": "address"
        },
        {
          "internalType": "uint16",
          "name": "_dstChainId",
          "type": "uint16"
        },
        {
          "internalType": "bytes32",
          "name": "_toAddress",
          "type": "bytes32"
        },
        {
          "internalType": "uint256",
          "name": "_amount",
          "type": "uint256"
        },
        {
          "internalType": "uint256",
          "name": "_minAmount",
          "type": "uint256"
        },
        {
          "components": [
            {
              "internalType": "address payable",
              "name": "refundAddress",
              "type": "address"
            },
            {
              "internalType": "address",
              "name": "zroPaymentAddress",
              "type": "address"
            },
            {
              "internalType": "bytes",
              "name": "adapterParams",
              "type": "bytes"
            }
          ],
          "internalType": "struct ICommonOFT.LzCallParams",
          "name": "_callParams",
          "type": "tuple"
        },
        {
          "components": [
            {
              "internalType": "uint256",
              "name": "callerBps",
              "type": "uint256"
            },
            {
              "internalType": "address",
              "name": "caller",
              "type": "address"
            },
            {
              "internalType": "bytes2",
              "name": "partnerId",
              "type": "bytes2"
            }
          ],
          "internalType": "struct IOFTWrapper.FeeObj",
          "name": "_feeObj",
          "type": "tuple"
        }
      ],
      "name": "sendProxyOFTFeeV2",
      "outputs": [],
      "stateMutability": "payable",
      "type": "function"
    },
    {
      "inputs": [
        {
          "internalType": "address",
          "name": "_proxyOft",
          "type": "address"
        },
        {
          "internalType": "uint16",
          "name": "_dstChainId",
          "type": "uint16"
        },
        {
          "internalType": "bytes32",
          "name": "_toAddress",
          "type": "bytes32"
        },
        {
          "internalType": "uint256",
          "name": "_amount",
          "type": "uint256"
        },
        {
          "internalType": "uint256",
          "name": "_minAmount",
          "type": "uint256"
        },
        {
          "components": [
            {
              "internalType": "address payable",
              "name": "refundAddress",
              "type": "address"
            },
            {
              "internalType": "address",
              "name": "zroPaymentAddress",
              "type": "address"
            },
            {
              "internalType": "bytes",
              "name": "adapterParams",
              "type": "bytes"
            }
          ],
          "internalType": "struct ICommonOFT.LzCallParams",
          "name": "_callParams",
          "type": "tuple"
        },
        {
          "components": [
            {
              "internalType": "uint256",
              "name": "callerBps",
              "type": "uint256"
            },
            {
              "internalType": "address",
              "name": "caller",
              "type": "address"
            },
            {
              "internalType": "bytes2",
              "name": "partnerId",
              "type": "bytes2"
            }
          ],
          "internalType": "struct IOFTWrapper.FeeObj",
          "name": "_feeObj",
          "type": "tuple"
        }
      ],
      "name": "sendProxyOFTV2",
      "outputs": [],
      "stateMutability": "payable",
      "type": "function"
    },
    {
      "inputs": [
        {
          "internalType": "uint256",
          "name": "_defaultBps",
          "type": "uint256"
        }
      ],
      "name": "setDefaultBps",
      "outputs": [],
      "stateMutability": "nonpayable",
      "type": "function"
    },
    {
      "inputs": [
        {
          "internalType": "address",
          "name": "_token",
          "type": "address"
        },
        {
          "internalType": "uint256",
          "name": "_bps",
          "type": "uint256"
        }
      ],
      "name": "setOFTBps",
      "outputs": [],
      "stateMutability": "nonpayable",
      "type": "function"
    },
    {
      "inputs": [
        {
          "internalType": "address",
          "name": "newOwner",
          "type": "address"
        }
      ],
      "name": "transferOwnership",
      "outputs": [],
      "stateMutability": "nonpayable",
      "type": "function"
    },
    {
      "inputs": [
        {
          "internalType": "address",
          "name": "_oft",
          "type": "address"
        },
        {
          "internalType": "address",
          "name": "_to",
          "type": "address"
        },
        {
          "internalType": "uint256",
          "name": "_amount",
          "type": "uint256"
        }
      ],
      "name": "withdrawFees",
      "outputs": [],
      "stateMutability": "nonpayable",
      "type": "function"
    }
  ],
  "transactionHash": "0x251eb5f2ee96185b1d11adbae26f6bb4edfde73bf3745c63ce773585dcd257e8",
  "args": [
    2
  ],
  "numDeployments": 3,
  "solcInputHash": "41e57eb4b9dc12c09b6bf02f519ddcf2",
  "bytecode": "0x608060405234801561001057600080fd5b50604051611ab2380380611ab283398101604081905261002f916100e9565b61003833610099565b6001805561271081106100915760405162461bcd60e51b815260206004820152601e60248201527f4f4654577261707065723a2064656661756c74427073203e3d20313030250000604482015260640160405180910390fd5b600255610102565b600080546001600160a01b038381166001600160a01b0319831681178455604051919092169283917f8be0079c531659141344cd1fd0a4f28419497f9722a3daafe3b4186f6b6457e09190a35050565b6000602082840312156100fb57600080fd5b5051919050565b6119a1806101116000396000f3fe6080604052600436106101095760003560e01c8063a46d74bc11610095578063e1a4521811610064578063e1a45218146102b2578063e1bafc80146102c8578063e55dc4e6146102e8578063e5b5019a14610308578063f2fde38b1461031e57600080fd5b8063a46d74bc14610256578063a8198c0014610276578063d1b308dc14610289578063dda16a101461029f57600080fd5b80637a751182116100dc5780637a7511821461019857806385154849146101d35780638bcb586c146101e65780638d8c915c146101f95780638da5cb5b1461022e57600080fd5b80630c3d27561461010e57806317696f6414610130578063498eff6414610170578063715018a614610183575b600080fd5b34801561011a57600080fd5b5061012e610129366004611131565b61033e565b005b34801561013c57600080fd5b5061015061014b36600461115d565b6103c4565b604080519384526020840192909252908201526060015b60405180910390f35b61012e61017e366004611205565b61051a565b34801561018f57600080fd5b5061012e6105b8565b3480156101a457600080fd5b506101c56101b33660046112e9565b60036020526000908152604090205481565b604051908152602001610167565b61012e6101e136600461130d565b6105cc565b61012e6101f436600461130d565b610660565b34801561020557600080fd5b506102196102143660046113ab565b610767565b60408051928352602083019190915201610167565b34801561023a57600080fd5b506000546040516001600160a01b039091168152602001610167565b34801561026257600080fd5b5061012e61027136600461144a565b610804565b61012e61028436600461130d565b610862565b34801561029557600080fd5b506101c560025481565b61012e6102ad36600461130d565b6108af565b3480156102be57600080fd5b506101c561271081565b3480156102d457600080fd5b506102196102e3366004611463565b610977565b3480156102f457600080fd5b5061012e610303366004611526565b610a17565b34801561031457600080fd5b506101c560001981565b34801561032a57600080fd5b5061012e6103393660046112e9565b610a7e565b610346610af7565b612710811080610357575060001981145b6103a85760405162461bcd60e51b815260206004820181905260248201527f4f4654577261707065723a206f66744270735b5f6f66745d203e3d203130302560448201526064015b60405180910390fd5b6001600160a01b03909116600090815260036020526040902055565b6001600160a01b03831660009081526003602052604081205481908190819060001914156103f457506000610436565b6001600160a01b0387166000908152600360205260409020541561043157506001600160a01b038616600090815260036020526040902054610436565b506002545b612710610443868361157d565b106104905760405162461bcd60e51b815260206004820152601b60248201527f4f4654577261707065723a2046656520627073203e3d20313030250000000000604482015260640161039f565b6000811161049f5760006104b6565b6127106104ac8288611595565b6104b691906115b4565b9250600085116104c75760006104de565b6127106104d48688611595565b6104de91906115b4565b915060008311806104ef5750600082115b6104f9578561050e565b8161050484886115d6565b61050e91906115d6565b93505093509350939050565b610522610b51565b60006105308c898985610bab565b90508b6001600160a01b0316635190563634338e8e8e878d8d8d8d6040518b63ffffffff1660e01b815260040161056f99989796959493929190611616565b6000604051808303818588803b15801561058857600080fd5b505af115801561059c573d6000803e3d6000fd5b5050505050506105ab60018055565b5050505050505050505050565b6105c0610af7565b6105ca6000610cab565b565b6105d4610b51565b60006105e288868685610bab565b9050876001600160a01b0316632cdf0b9534338a8a868a8a6040518863ffffffff1660e01b815260040161061b9695949392919061170d565b6000604051808303818588803b15801561063457600080fd5b505af1158015610648573d6000803e3d6000fd5b50505050505061065760018055565b50505050505050565b610668610b51565b6000876001600160a01b031663fc0c546a6040518163ffffffff1660e01b8152600401602060405180830381865afa1580156106a8573d6000803e3d6000fd5b505050506040513d601f19601f820116820180604052508101906106cc9190611756565b905060006106dc82878786610cfb565b90506106f26001600160a01b0383168a83610d5f565b604051632cdf0b9560e01b81526001600160a01b038a1690632cdf0b9590349061072a9030908d908d9088908d908d9060040161170d565b6000604051808303818588803b15801561074357600080fd5b505af1158015610757573d6000803e3d6000fd5b5050505050505061065760018055565b600080806107778b8986356103c4565b5050604051630d94982d60e21b81529091506001600160a01b038c169063365260b4906107b2908d908d9086908d908d908d90600401611773565b6040805180830381865afa1580156107ce573d6000803e3d6000fd5b505050506040513d601f19601f820116820180604052508101906107f291906117a5565b92509250509850989650505050505050565b61080c610af7565b612710811061085d5760405162461bcd60e51b815260206004820152601e60248201527f4f4654577261707065723a2064656661756c74427073203e3d20313030250000604482015260640161039f565b600255565b61086a610b51565b600061087888868685610bab565b9050876001600160a01b031663695ef6bf34338a8a86896040518763ffffffff1660e01b815260040161061b9594939291906117c9565b6108b7610b51565b6000876001600160a01b031663fc0c546a6040518163ffffffff1660e01b8152600401602060405180830381865afa1580156108f7573d6000803e3d6000fd5b505050506040513d601f19601f8201168201806040525081019061091b9190611756565b9050600061092b82878786610cfb565b90506109416001600160a01b0383168a83610d5f565b60405163695ef6bf60e01b81526001600160a01b038a169063695ef6bf90349061072a9030908d908d9088908c906004016117c9565b600080806109878c8986356103c4565b5050604051632a205e3d60e01b81529091506001600160a01b038d1690632a205e3d906109c4908e908e908e9087908e908e908e90600401611800565b6040805180830381865afa1580156109e0573d6000803e3d6000fd5b505050506040513d601f19601f82011682018060405250810190610a0491906117a5565b9250925050995099975050505050505050565b610a1f610af7565b610a336001600160a01b0384168383610eac565b604080516001600160a01b038481168252602082018490528516917ff6514f9f283faac4cf3f3a6a702c116227ad0f2c727fb336e4c10b418bc6d613910160405180910390a2505050565b610a86610af7565b6001600160a01b038116610aeb5760405162461bcd60e51b815260206004820152602660248201527f4f776e61626c653a206e6577206f776e657220697320746865207a65726f206160448201526564647265737360d01b606482015260840161039f565b610af481610cab565b50565b6000546001600160a01b031633146105ca5760405162461bcd60e51b815260206004820181905260248201527f4f776e61626c653a2063616c6c6572206973206e6f7420746865206f776e6572604482015260640161039f565b60026001541415610ba45760405162461bcd60e51b815260206004820152601f60248201527f5265656e7472616e637947756172643a207265656e7472616e742063616c6c00604482015260640161039f565b6002600155565b6000808080610bbc888887356103c4565b925092509250858310158015610bd25750600083115b610bee5760405162461bcd60e51b815260040161039f9061184d565b8115610c0957610c096001600160a01b038916333085610edc565b8015610c3557610c3533610c2360408801602089016112e9565b6001600160a01b038b16919084610edc565b610c456060860160408701611890565b604080516001600160a01b038b168152602081018590529081018390526001600160f01b031991909116907f97bcdc1dd7ab82ef93280983f23d391afea463d0333fddd1a4617693b9ccfeea9060600160405180910390a250909150505b949350505050565b600080546001600160a01b038381166001600160a01b0319831681178455604051919092169283917f8be0079c531659141344cd1fd0a4f28419497f9722a3daafe3b4186f6b6457e09190a35050565b6000808080610d0c888887356103c4565b925092509250858310158015610d225750600083115b610d3e5760405162461bcd60e51b815260040161039f9061184d565b610c093330610d4d858761157d565b6001600160a01b038c16929190610edc565b801580610dd95750604051636eb1769f60e11b81523060048201526001600160a01b03838116602483015284169063dd62ed3e90604401602060405180830381865afa158015610db3573d6000803e3d6000fd5b505050506040513d601f19601f82011682018060405250810190610dd791906118ba565b155b610e445760405162461bcd60e51b815260206004820152603660248201527f5361666545524332303a20617070726f76652066726f6d206e6f6e2d7a65726f60448201527520746f206e6f6e2d7a65726f20616c6c6f77616e636560501b606482015260840161039f565b6040516001600160a01b038316602482015260448101829052610ea790849063095ea7b360e01b906064015b60408051601f198184030181529190526020810180516001600160e01b03166001600160e01b031990931692909217909152610f1a565b505050565b6040516001600160a01b038316602482015260448101829052610ea790849063a9059cbb60e01b90606401610e70565b6040516001600160a01b0380851660248301528316604482015260648101829052610f149085906323b872dd60e01b90608401610e70565b50505050565b6000610f6f826040518060400160405280602081526020017f5361666545524332303a206c6f772d6c6576656c2063616c6c206661696c6564815250856001600160a01b0316610fec9092919063ffffffff16565b805190915015610ea75780806020019051810190610f8d91906118d3565b610ea75760405162461bcd60e51b815260206004820152602a60248201527f5361666545524332303a204552433230206f7065726174696f6e20646964206e6044820152691bdd081cdd58d8d9595960b21b606482015260840161039f565b6060610ca3848460008585600080866001600160a01b03168587604051611013919061191c565b60006040518083038185875af1925050503d8060008114611050576040519150601f19603f3d011682016040523d82523d6000602084013e611055565b606091505b509150915061106687838387611071565b979650505050505050565b606083156110dd5782516110d6576001600160a01b0385163b6110d65760405162461bcd60e51b815260206004820152601d60248201527f416464726573733a2063616c6c20746f206e6f6e2d636f6e7472616374000000604482015260640161039f565b5081610ca3565b610ca383838151156110f25781518083602001fd5b8060405162461bcd60e51b815260040161039f9190611938565b6001600160a01b0381168114610af457600080fd5b803561112c8161110c565b919050565b6000806040838503121561114457600080fd5b823561114f8161110c565b946020939093013593505050565b60008060006060848603121561117257600080fd5b833561117d8161110c565b95602085013595506040909401359392505050565b803561ffff8116811461112c57600080fd5b60008083601f8401126111b657600080fd5b50813567ffffffffffffffff8111156111ce57600080fd5b6020830191508360208285010111156111e657600080fd5b9250929050565b6000606082840312156111ff57600080fd5b50919050565b60008060008060008060008060008060006101608c8e03121561122757600080fd5b6112318c3561110c565b8b359a5061124160208d01611192565b995067ffffffffffffffff8060408e0135111561125d57600080fd5b61126d8e60408f01358f016111a4565b909a50985060608d0135975060808d0135965061128d60a08e013561110c565b60a08d013595506112a060c08e01611121565b94508060e08e013511156112b357600080fd5b506112c48d60e08e01358e016111a4565b90935091506112d78d6101008e016111ed565b90509295989b509295989b9093969950565b6000602082840312156112fb57600080fd5b81356113068161110c565b9392505050565b6000806000806000806000610120888a03121561132957600080fd5b87356113348161110c565b965061134260208901611192565b955060408801359450606088013593506080880135925060a088013567ffffffffffffffff81111561137357600080fd5b61137f8a828b016111ed565b92505061138f8960c08a016111ed565b905092959891949750929550565b8015158114610af457600080fd5b600080600080600080600080610120898b0312156113c857600080fd5b88356113d38161110c565b97506113e160208a01611192565b9650604089013595506060890135945060808901356113ff8161139d565b935060a089013567ffffffffffffffff81111561141b57600080fd5b6114278b828c016111a4565b909450925061143b90508a60c08b016111ed565b90509295985092959890939650565b60006020828403121561145c57600080fd5b5035919050565b60008060008060008060008060006101208a8c03121561148257600080fd5b893561148d8161110c565b985061149b60208b01611192565b975060408a013567ffffffffffffffff808211156114b857600080fd5b6114c48d838e016111a4565b909950975060608c0135965060808c013591506114e08261139d565b90945060a08b013590808211156114f657600080fd5b506115038c828d016111a4565b909450925061151790508b60c08c016111ed565b90509295985092959850929598565b60008060006060848603121561153b57600080fd5b83356115468161110c565b925060208401356115568161110c565b929592945050506040919091013590565b634e487b7160e01b600052601160045260246000fd5b6000821982111561159057611590611567565b500190565b60008160001904831182151516156115af576115af611567565b500290565b6000826115d157634e487b7160e01b600052601260045260246000fd5b500490565b6000828210156115e8576115e8611567565b500390565b81835281816020850137506000828201602090810191909152601f909101601f19169091010190565b600060018060a01b03808c16835261ffff8b16602084015260e0604084015261164360e084018a8c6115ed565b886060850152818816608085015281871660a085015283810360c085015261166c8186886115ed565b9d9c50505050505050505050505050565b6000813561168a8161110c565b6001600160a01b0390811684526020830135906116a68261110c565b166020840152604082013536839003601e190181126116c457600080fd5b8201803567ffffffffffffffff8111156116dd57600080fd5b8036038413156116ec57600080fd5b606060408601526117046060860182602085016115ed565b95945050505050565b60018060a01b038716815261ffff8616602082015284604082015283606082015282608082015260c060a0820152600061174a60c083018461167d565b98975050505050505050565b60006020828403121561176857600080fd5b81516113068161110c565b61ffff87168152856020820152846040820152831515606082015260a06080820152600061174a60a0830184866115ed565b600080604083850312156117b857600080fd5b505080516020909101519092909150565b60018060a01b038616815261ffff8516602082015283604082015282606082015260a06080820152600061106660a083018461167d565b61ffff8816815260a06020820152600061181e60a08301888a6115ed565b8660408401528515156060840152828103608084015261183f8185876115ed565b9a9950505050505050505050565b60208082526023908201527f4f4654577261707065723a206e6f7420656e6f75676820616d6f756e74546f5360408201526207761760ec1b606082015260800190565b6000602082840312156118a257600080fd5b81356001600160f01b03198116811461130657600080fd5b6000602082840312156118cc57600080fd5b5051919050565b6000602082840312156118e557600080fd5b81516113068161139d565b60005b8381101561190b5781810151838201526020016118f3565b83811115610f145750506000910152565b6000825161192e8184602087016118f0565b9190910192915050565b60208152600082518060208401526119578160408501602087016118f0565b601f01601f1916919091016040019291505056fea2646970667358221220f00b3f4341165c61c3de1a5f655889d5983fe270be2781017f865833419db44964736f6c634300080c0033",
  "devdoc": {
    "kind": "dev",
    "methods": {
      "owner()": {
        "details": "Returns the address of the current owner."
      },
      "renounceOwnership()": {
        "details": "Leaves the contract without owner. It will not be possible to call `onlyOwner` functions anymore. Can only be called by the current owner. NOTE: Renouncing ownership will leave the contract without an owner, thereby removing any functionality that is only available to the owner."
      },
      "transferOwnership(address)": {
        "details": "Transfers ownership of the contract to a new account (`newOwner`). Can only be called by the current owner."
      }
    },
    "version": 1
  },
  "userdoc": {
    "kind": "user",
    "methods": {},
    "version": 1
  },
  "storageLayout": {
    "storage": [
      {
        "astId": 245,
        "contract": "contracts/OFTWrapper.sol:OFTWrapper",
        "label": "_owner",
        "offset": 0,
        "slot": "0",
        "type": "t_address"
      },
      {
        "astId": 361,
        "contract": "contracts/OFTWrapper.sol:OFTWrapper",
        "label": "_status",
        "offset": 0,
        "slot": "1",
        "type": "t_uint256"
      },
      {
        "astId": 1194,
        "contract": "contracts/OFTWrapper.sol:OFTWrapper",
        "label": "defaultBps",
        "offset": 0,
        "slot": "2",
        "type": "t_uint256"
      },
      {
        "astId": 1198,
        "contract": "contracts/OFTWrapper.sol:OFTWrapper",
        "label": "oftBps",
        "offset": 0,
        "slot": "3",
        "type": "t_mapping(t_address,t_uint256)"
      }
    ],
    "types": {
      "t_address": {
        "encoding": "inplace",
        "label": "address",
        "numberOfBytes": "20"
      },
      "t_mapping(t_address,t_uint256)": {
        "encoding": "mapping",
        "key": "t_address",
        "label": "mapping(address => uint256)",
        "numberOfBytes": "32",
        "value": "t_uint256"
      },
      "t_uint256": {
        "encoding": "inplace",
        "label": "uint256",
        "numberOfBytes": "32"
      }
    }
  }
}