{
  "address": "0x2eF002aa0AB6761B6aEa8d639DcdAa20d79b768c",
  "abi": [
    {
      "inputs": [
        {
          "internalType": "uint256",
          "name": "_defaultBps",
          "type": "uint256"
        }
      ],
      "stateMutability": "nonpayable",
      "type": "constructor"
    },
    {
      "anonymous": false,
      "inputs": [
        {
          "indexed": true,
          "internalType": "address",
          "name": "previousOwner",
          "type": "address"
        },
        {
          "indexed": true,
          "internalType": "address",
          "name": "newOwner",
          "type": "address"
        }
      ],
      "name": "OwnershipTransferred",
      "type": "event"
    },
    {
      "anonymous": false,
      "inputs": [
        {
          "indexed": true,
          "internalType": "address",
          "name": "oft",
          "type": "address"
        },
        {
          "indexed": false,
          "internalType": "address",
          "name": "to",
          "type": "address"
        },
        {
          "indexed": false,
          "internalType": "uint256",
          "name": "amount",
          "type": "uint256"
        }
      ],
      "name": "WrapperFeeWithdrawn",
      "type": "event"
    },
    {
      "anonymous": false,
      "inputs": [
        {
          "indexed": true,
          "internalType": "bytes2",
          "name": "partnerId",
          "type": "bytes2"
        },
        {
          "indexed": false,
          "internalType": "address",
          "name": "token",
          "type": "address"
        },
        {
          "indexed": false,
          "internalType": "uint256",
          "name": "wrapperFee",
          "type": "uint256"
        },
        {
          "indexed": false,
          "internalType": "uint256",
          "name": "callerFee",
          "type": "uint256"
        }
      ],
      "name": "WrapperFees",
      "type": "event"
    },
    {
      "inputs": [],
      "name": "BPS_DENOMINATOR",
      "outputs": [
        {
          "internalType": "uint256",
          "name": "",
          "type": "uint256"
        }
      ],
      "stateMutability": "view",
      "type": "function"
    },
    {
      "inputs": [],
      "name": "MAX_UINT",
      "outputs": [
        {
          "internalType": "uint256",
          "name": "",
          "type": "uint256"
        }
      ],
      "stateMutability": "view",
      "type": "function"
    },
    {
      "inputs": [],
      "name": "defaultBps",
      "outputs": [
        {
          "internalType": "uint256",
          "name": "",
          "type": "uint256"
        }
      ],
      "stateMutability": "view",
      "type": "function"
    },
    {
      "inputs": [
        {
          "internalType": "address",
          "name": "_oft",
          "type": "address"
        },
        {
          "internalType": "uint16",
          "name": "_dstChainId",
          "type": "uint16"
        },
        {
          "internalType": "bytes",
          "name": "_toAddress",
          "type": "bytes"
        },
        {
          "internalType": "uint256",
          "name": "_amount",
          "type": "uint256"
        },
        {
          "internalType": "bool",
          "name": "_useZro",
          "type": "bool"
        },
        {
          "internalType": "bytes",
          "name": "_adapterParams",
          "type": "bytes"
        },
        {
          "components": [
            {
              "internalType": "uint256",
              "name": "callerBps",
              "type": "uint256"
            },
            {
              "internalType": "address",
              "name": "caller",
              "type": "address"
            },
            {
              "internalType": "bytes2",
              "name": "partnerId",
              "type": "bytes2"
            }
          ],
          "internalType": "struct IOFTWrapper.FeeObj",
          "name": "_feeObj",
          "type": "tuple"
        }
      ],
      "name": "estimateSendFee",
      "outputs": [
        {
          "internalType": "uint256",
          "name": "nativeFee",
          "type": "uint256"
        },
        {
          "internalType": "uint256",
          "name": "zroFee",
          "type": "uint256"
        }
      ],
      "stateMutability": "view",
      "type": "function"
    },
    {
      "inputs": [
        {
          "internalType": "address",
          "name": "_oft",
          "type": "address"
        },
        {
          "internalType": "uint16",
          "name": "_dstChainId",
          "type": "uint16"
        },
        {
          "internalType": "bytes32",
          "name": "_toAddress",
          "type": "bytes32"
        },
        {
          "internalType": "uint256",
          "name": "_amount",
          "type": "uint256"
        },
        {
          "internalType": "bool",
          "name": "_useZro",
          "type": "bool"
        },
        {
          "internalType": "bytes",
          "name": "_adapterParams",
          "type": "bytes"
        },
        {
          "components": [
            {
              "internalType": "uint256",
              "name": "callerBps",
              "type": "uint256"
            },
            {
              "internalType": "address",
              "name": "caller",
              "type": "address"
            },
            {
              "internalType": "bytes2",
              "name": "partnerId",
              "type": "bytes2"
            }
          ],
          "internalType": "struct IOFTWrapper.FeeObj",
          "name": "_feeObj",
          "type": "tuple"
        }
      ],
      "name": "estimateSendFeeV2",
      "outputs": [
        {
          "internalType": "uint256",
          "name": "nativeFee",
          "type": "uint256"
        },
        {
          "internalType": "uint256",
          "name": "zroFee",
          "type": "uint256"
        }
      ],
      "stateMutability": "view",
      "type": "function"
    },
    {
      "inputs": [
        {
          "internalType": "address",
          "name": "_token",
          "type": "address"
        },
        {
          "internalType": "uint256",
          "name": "_amount",
          "type": "uint256"
        },
        {
          "internalType": "uint256",
          "name": "_callerBps",
          "type": "uint256"
        }
      ],
      "name": "getAmountAndFees",
      "outputs": [
        {
          "internalType": "uint256",
          "name": "amount",
          "type": "uint256"
        },
        {
          "internalType": "uint256",
          "name": "wrapperFee",
          "type": "uint256"
        },
        {
          "internalType": "uint256",
          "name": "callerFee",
          "type": "uint256"
        }
      ],
      "stateMutability": "view",
      "type": "function"
    },
    {
      "inputs": [
        {
          "internalType": "address",
          "name": "",
          "type": "address"
        }
      ],
      "name": "oftBps",
      "outputs": [
        {
          "internalType": "uint256",
          "name": "",
          "type": "uint256"
        }
      ],
      "stateMutability": "view",
      "type": "function"
    },
    {
      "inputs": [],
      "name": "owner",
      "outputs": [
        {
          "internalType": "address",
          "name": "",
          "type": "address"
        }
      ],
      "stateMutability": "view",
      "type": "function"
    },
    {
      "inputs": [],
      "name": "renounceOwnership",
      "outputs": [],
      "stateMutability": "nonpayable",
      "type": "function"
    },
    {
      "inputs": [
        {
          "internalType": "address",
          "name": "_oft",
          "type": "address"
        },
        {
          "internalType": "uint16",
          "name": "_dstChainId",
          "type": "uint16"
        },
        {
          "internalType": "bytes",
          "name": "_toAddress",
          "type": "bytes"
        },
        {
          "internalType": "uint256",
          "name": "_amount",
          "type": "uint256"
        },
        {
          "internalType": "uint256",
          "name": "_minAmount",
          "type": "uint256"
        },
        {
          "internalType": "address payable",
          "name": "_refundAddress",
          "type": "address"
        },
        {
          "internalType": "address",
          "name": "_zroPaymentAddress",
          "type": "address"
        },
        {
          "internalType": "bytes",
          "name": "_adapterParams",
          "type": "bytes"
        },
        {
          "components": [
            {
              "internalType": "uint256",
              "name": "callerBps",
              "type": "uint256"
            },
            {
              "internalType": "address",
              "name": "caller",
              "type": "address"
            },
            {
              "internalType": "bytes2",
              "name": "partnerId",
              "type": "bytes2"
            }
          ],
          "internalType": "struct IOFTWrapper.FeeObj",
          "name": "_feeObj",
          "type": "tuple"
        }
      ],
      "name": "sendOFT",
      "outputs": [],
      "stateMutability": "payable",
      "type": "function"
    },
    {
      "inputs": [
        {
          "internalType": "address",
          "name": "_oft",
          "type": "address"
        },
        {
          "internalType": "uint16",
          "name": "_dstChainId",
          "type": "uint16"
        },
        {
          "internalType": "bytes32",
          "name": "_toAddress",
          "type": "bytes32"
        },
        {
          "internalType": "uint256",
          "name": "_amount",
          "type": "uint256"
        },
        {
          "internalType": "uint256",
          "name": "_minAmount",
          "type": "uint256"
        },
        {
          "components": [
            {
              "internalType": "address payable",
              "name": "refundAddress",
              "type": "address"
            },
            {
              "internalType": "address",
              "name": "zroPaymentAddress",
              "type": "address"
            },
            {
              "internalType": "bytes",
              "name": "adapterParams",
              "type": "bytes"
            }
          ],
          "internalType": "struct ICommonOFT.LzCallParams",
          "name": "_callParams",
          "type": "tuple"
        },
        {
          "components": [
            {
              "internalType": "uint256",
              "name": "callerBps",
              "type": "uint256"
            },
            {
              "internalType": "address",
              "name": "caller",
              "type": "address"
            },
            {
              "internalType": "bytes2",
              "name": "partnerId",
              "type": "bytes2"
            }
          ],
          "internalType": "struct IOFTWrapper.FeeObj",
          "name": "_feeObj",
          "type": "tuple"
        }
      ],
      "name": "sendOFTFeeV2",
      "outputs": [],
      "stateMutability": "payable",
      "type": "function"
    },
    {
      "inputs": [
        {
          "internalType": "address",
          "name": "_oft",
          "type": "address"
        },
        {
          "internalType": "uint16",
          "name": "_dstChainId",
          "type": "uint16"
        },
        {
          "internalType": "bytes32",
          "name": "_toAddress",
          "type": "bytes32"
        },
        {
          "internalType": "uint256",
          "name": "_amount",
          "type": "uint256"
        },
        {
          "internalType": "uint256",
          "name": "_minAmount",
          "type": "uint256"
        },
        {
          "components": [
            {
              "internalType": "address payable",
              "name": "refundAddress",
              "type": "address"
            },
            {
              "internalType": "address",
              "name": "zroPaymentAddress",
              "type": "address"
            },
            {
              "internalType": "bytes",
              "name": "adapterParams",
              "type": "bytes"
            }
          ],
          "internalType": "struct ICommonOFT.LzCallParams",
          "name": "_callParams",
          "type": "tuple"
        },
        {
          "components": [
            {
              "internalType": "uint256",
              "name": "callerBps",
              "type": "uint256"
            },
            {
              "internalType": "address",
              "name": "caller",
              "type": "address"
            },
            {
              "internalType": "bytes2",
              "name": "partnerId",
              "type": "bytes2"
            }
          ],
          "internalType": "struct IOFTWrapper.FeeObj",
          "name": "_feeObj",
          "type": "tuple"
        }
      ],
      "name": "sendOFTV2",
      "outputs": [],
      "stateMutability": "payable",
      "type": "function"
    },
    {
      "inputs": [
        {
          "internalType": "address",
          "name": "_proxyOft",
          "type": "address"
        },
        {
          "internalType": "uint16",
          "name": "_dstChainId",
          "type": "uint16"
        },
        {
          "internalType": "bytes32",
          "name": "_toAddress",
          "type": "bytes32"
        },
        {
          "internalType": "uint256",
          "name": "_amount",
          "type": "uint256"
        },
        {
          "internalType": "uint256",
          "name": "_minAmount",
          "type": "uint256"
        },
        {
          "components": [
            {
              "internalType": "address payable",
              "name": "refundAddress",
              "type": "address"
            },
            {
              "internalType": "address",
              "name": "zroPaymentAddress",
              "type": "address"
            },
            {
              "internalType": "bytes",
              "name": "adapterParams",
              "type": "bytes"
            }
          ],
          "internalType": "struct ICommonOFT.LzCallParams",
          "name": "_callParams",
          "type": "tuple"
        },
        {
          "components": [
            {
              "internalType": "uint256",
              "name": "callerBps",
              "type": "uint256"
            },
            {
              "internalType": "address",
              "name": "caller",
              "type": "address"
            },
            {
              "internalType": "bytes2",
              "name": "partnerId",
              "type": "bytes2"
            }
          ],
          "internalType": "struct IOFTWrapper.FeeObj",
          "name": "_feeObj",
          "type": "tuple"
        }
      ],
      "name": "sendProxyOFTFeeV2",
      "outputs": [],
      "stateMutability": "payable",
      "type": "function"
    },
    {
      "inputs": [
        {
          "internalType": "address",
          "name": "_proxyOft",
          "type": "address"
        },
        {
          "internalType": "uint16",
          "name": "_dstChainId",
          "type": "uint16"
        },
        {
          "internalType": "bytes32",
          "name": "_toAddress",
          "type": "bytes32"
        },
        {
          "internalType": "uint256",
          "name": "_amount",
          "type": "uint256"
        },
        {
          "internalType": "uint256",
          "name": "_minAmount",
          "type": "uint256"
        },
        {
          "components": [
            {
              "internalType": "address payable",
              "name": "refundAddress",
              "type": "address"
            },
            {
              "internalType": "address",
              "name": "zroPaymentAddress",
              "type": "address"
            },
            {
              "internalType": "bytes",
              "name": "adapterParams",
              "type": "bytes"
            }
          ],
          "internalType": "struct ICommonOFT.LzCallParams",
          "name": "_callParams",
          "type": "tuple"
        },
        {
          "components": [
            {
              "internalType": "uint256",
              "name": "callerBps",
              "type": "uint256"
            },
            {
              "internalType": "address",
              "name": "caller",
              "type": "address"
            },
            {
              "internalType": "bytes2",
              "name": "partnerId",
              "type": "bytes2"
            }
          ],
          "internalType": "struct IOFTWrapper.FeeObj",
          "name": "_feeObj",
          "type": "tuple"
        }
      ],
      "name": "sendProxyOFTV2",
      "outputs": [],
      "stateMutability": "payable",
      "type": "function"
    },
    {
      "inputs": [
        {
          "internalType": "uint256",
          "name": "_defaultBps",
          "type": "uint256"
        }
      ],
      "name": "setDefaultBps",
      "outputs": [],
      "stateMutability": "nonpayable",
      "type": "function"
    },
    {
      "inputs": [
        {
          "internalType": "address",
          "name": "_token",
          "type": "address"
        },
        {
          "internalType": "uint256",
          "name": "_bps",
          "type": "uint256"
        }
      ],
      "name": "setOFTBps",
      "outputs": [],
      "stateMutability": "nonpayable",
      "type": "function"
    },
    {
      "inputs": [
        {
          "internalType": "address",
          "name": "newOwner",
          "type": "address"
        }
      ],
      "name": "transferOwnership",
      "outputs": [],
      "stateMutability": "nonpayable",
      "type": "function"
    },
    {
      "inputs": [
        {
          "internalType": "address",
          "name": "_oft",
          "type": "address"
        },
        {
          "internalType": "address",
          "name": "_to",
          "type": "address"
        },
        {
          "internalType": "uint256",
          "name": "_amount",
          "type": "uint256"
        }
      ],
      "name": "withdrawFees",
      "outputs": [],
      "stateMutability": "nonpayable",
      "type": "function"
    }
  ],
  "transactionHash": "0x76fcab6b666945521d45708456f06c4b3d63e2e045e306870c36d0ff412c1de5",
  "args": [
    2
  ],
  "numDeployments": 5,
  "solcInputHash": "491ab57fd0a1572e375bf85c85d9f91e",
  "bytecode": "0x608060405234801561001057600080fd5b5060405162001b4338038062001b43833981016040819052610031916100eb565b61003a3361009b565b6001805561271081106100935760405162461bcd60e51b815260206004820152601e60248201527f4f4654577261707065723a2064656661756c74427073203e3d20313030250000604482015260640160405180910390fd5b600255610104565b600080546001600160a01b038381166001600160a01b0319831681178455604051919092169283917f8be0079c531659141344cd1fd0a4f28419497f9722a3daafe3b4186f6b6457e09190a35050565b6000602082840312156100fd57600080fd5b5051919050565b611a2f80620001146000396000f3fe6080604052600436106101095760003560e01c8063a46d74bc11610095578063e1a4521811610064578063e1a45218146102b2578063e1bafc80146102c8578063e55dc4e6146102e8578063e5b5019a14610308578063f2fde38b1461031e57600080fd5b8063a46d74bc14610256578063a8198c0014610276578063d1b308dc14610289578063dda16a101461029f57600080fd5b80637a751182116100dc5780637a7511821461019857806385154849146101d35780638bcb586c146101e65780638d8c915c146101f95780638da5cb5b1461022e57600080fd5b80630c3d27561461010e57806317696f6414610130578063498eff6414610170578063715018a614610183575b600080fd5b34801561011a57600080fd5b5061012e6101293660046111bf565b61033e565b005b34801561013c57600080fd5b5061015061014b3660046111eb565b6103c4565b604080519384526020840192909252908201526060015b60405180910390f35b61012e61017e366004611293565b61051a565b34801561018f57600080fd5b5061012e6105b8565b3480156101a457600080fd5b506101c56101b3366004611377565b60036020526000908152604090205481565b604051908152602001610167565b61012e6101e136600461139b565b6105cc565b61012e6101f436600461139b565b610660565b34801561020557600080fd5b50610219610214366004611439565b6107f5565b60408051928352602083019190915201610167565b34801561023a57600080fd5b506000546040516001600160a01b039091168152602001610167565b34801561026257600080fd5b5061012e6102713660046114d8565b610892565b61012e61028436600461139b565b6108f0565b34801561029557600080fd5b506101c560025481565b61012e6102ad36600461139b565b61093d565b3480156102be57600080fd5b506101c561271081565b3480156102d457600080fd5b506102196102e33660046114f1565b610a05565b3480156102f457600080fd5b5061012e6103033660046115b4565b610aa5565b34801561031457600080fd5b506101c560001981565b34801561032a57600080fd5b5061012e610339366004611377565b610b0c565b610346610b85565b612710811080610357575060001981145b6103a85760405162461bcd60e51b815260206004820181905260248201527f4f4654577261707065723a206f66744270735b5f6f66745d203e3d203130302560448201526064015b60405180910390fd5b6001600160a01b03909116600090815260036020526040902055565b6001600160a01b03831660009081526003602052604081205481908190819060001914156103f457506000610436565b6001600160a01b0387166000908152600360205260409020541561043157506001600160a01b038616600090815260036020526040902054610436565b506002545b612710610443868361160b565b106104905760405162461bcd60e51b815260206004820152601b60248201527f4f4654577261707065723a2046656520627073203e3d20313030250000000000604482015260640161039f565b6000811161049f5760006104b6565b6127106104ac8288611623565b6104b69190611642565b9250600085116104c75760006104de565b6127106104d48688611623565b6104de9190611642565b915060008311806104ef5750600082115b6104f9578561050e565b816105048488611664565b61050e9190611664565b93505093509350939050565b610522610bdf565b60006105308c898985610c39565b90508b6001600160a01b0316635190563634338e8e8e878d8d8d8d6040518b63ffffffff1660e01b815260040161056f999897969594939291906116a4565b6000604051808303818588803b15801561058857600080fd5b505af115801561059c573d6000803e3d6000fd5b5050505050506105ab60018055565b5050505050505050505050565b6105c0610b85565b6105ca6000610d39565b565b6105d4610bdf565b60006105e288868685610c39565b9050876001600160a01b0316632cdf0b9534338a8a868a8a6040518863ffffffff1660e01b815260040161061b9695949392919061179b565b6000604051808303818588803b15801561063457600080fd5b505af1158015610648573d6000803e3d6000fd5b50505050505061065760018055565b50505050505050565b610668610bdf565b6000876001600160a01b031663fc0c546a6040518163ffffffff1660e01b8152600401602060405180830381865afa1580156106a8573d6000803e3d6000fd5b505050506040513d601f19601f820116820180604052508101906106cc91906117e4565b905060006106dc82878786610d89565b90506106f26001600160a01b0383168a83610ded565b604051632cdf0b9560e01b81526001600160a01b038a1690632cdf0b9590349061072a9030908d908d9088908d908d9060040161179b565b6000604051808303818588803b15801561074357600080fd5b505af1158015610757573d6000803e3d6000fd5b5050604051636eb1769f60e11b81523060048201526001600160a01b038d81166024830152600094508616925063dd62ed3e9150604401602060405180830381865afa1580156107ab573d6000803e3d6000fd5b505050506040513d601f19601f820116820180604052508101906107cf9190611801565b11156107ea576107ea6001600160a01b0383168a6000610ded565b505061065760018055565b600080806108058b8986356103c4565b5050604051630d94982d60e21b81529091506001600160a01b038c169063365260b490610840908d908d9086908d908d908d9060040161181a565b6040805180830381865afa15801561085c573d6000803e3d6000fd5b505050506040513d601f19601f82011682018060405250810190610880919061184c565b92509250509850989650505050505050565b61089a610b85565b61271081106108eb5760405162461bcd60e51b815260206004820152601e60248201527f4f4654577261707065723a2064656661756c74427073203e3d20313030250000604482015260640161039f565b600255565b6108f8610bdf565b600061090688868685610c39565b9050876001600160a01b031663695ef6bf34338a8a86896040518763ffffffff1660e01b815260040161061b959493929190611870565b610945610bdf565b6000876001600160a01b031663fc0c546a6040518163ffffffff1660e01b8152600401602060405180830381865afa158015610985573d6000803e3d6000fd5b505050506040513d601f19601f820116820180604052508101906109a991906117e4565b905060006109b982878786610d89565b90506109cf6001600160a01b0383168a83610ded565b60405163695ef6bf60e01b81526001600160a01b038a169063695ef6bf90349061072a9030908d908d9088908c90600401611870565b60008080610a158c8986356103c4565b5050604051632a205e3d60e01b81529091506001600160a01b038d1690632a205e3d90610a52908e908e908e9087908e908e908e906004016118a7565b6040805180830381865afa158015610a6e573d6000803e3d6000fd5b505050506040513d601f19601f82011682018060405250810190610a92919061184c565b9250925050995099975050505050505050565b610aad610b85565b610ac16001600160a01b0384168383610f3a565b604080516001600160a01b038481168252602082018490528516917ff6514f9f283faac4cf3f3a6a702c116227ad0f2c727fb336e4c10b418bc6d613910160405180910390a2505050565b610b14610b85565b6001600160a01b038116610b795760405162461bcd60e51b815260206004820152602660248201527f4f776e61626c653a206e6577206f776e657220697320746865207a65726f206160448201526564647265737360d01b606482015260840161039f565b610b8281610d39565b50565b6000546001600160a01b031633146105ca5760405162461bcd60e51b815260206004820181905260248201527f4f776e61626c653a2063616c6c6572206973206e6f7420746865206f776e6572604482015260640161039f565b60026001541415610c325760405162461bcd60e51b815260206004820152601f60248201527f5265656e7472616e637947756172643a207265656e7472616e742063616c6c00604482015260640161039f565b6002600155565b6000808080610c4a888887356103c4565b925092509250858310158015610c605750600083115b610c7c5760405162461bcd60e51b815260040161039f906118f4565b8115610c9757610c976001600160a01b038916333085610f6a565b8015610cc357610cc333610cb16040880160208901611377565b6001600160a01b038b16919084610f6a565b610cd36060860160408701611937565b604080516001600160a01b038b168152602081018590529081018390526001600160f01b031991909116907f97bcdc1dd7ab82ef93280983f23d391afea463d0333fddd1a4617693b9ccfeea9060600160405180910390a250909150505b949350505050565b600080546001600160a01b038381166001600160a01b0319831681178455604051919092169283917f8be0079c531659141344cd1fd0a4f28419497f9722a3daafe3b4186f6b6457e09190a35050565b6000808080610d9a888887356103c4565b925092509250858310158015610db05750600083115b610dcc5760405162461bcd60e51b815260040161039f906118f4565b610c973330610ddb858761160b565b6001600160a01b038c16929190610f6a565b801580610e675750604051636eb1769f60e11b81523060048201526001600160a01b03838116602483015284169063dd62ed3e90604401602060405180830381865afa158015610e41573d6000803e3d6000fd5b505050506040513d601f19601f82011682018060405250810190610e659190611801565b155b610ed25760405162461bcd60e51b815260206004820152603660248201527f5361666545524332303a20617070726f76652066726f6d206e6f6e2d7a65726f60448201527520746f206e6f6e2d7a65726f20616c6c6f77616e636560501b606482015260840161039f565b6040516001600160a01b038316602482015260448101829052610f3590849063095ea7b360e01b906064015b60408051601f198184030181529190526020810180516001600160e01b03166001600160e01b031990931692909217909152610fa8565b505050565b6040516001600160a01b038316602482015260448101829052610f3590849063a9059cbb60e01b90606401610efe565b6040516001600160a01b0380851660248301528316604482015260648101829052610fa29085906323b872dd60e01b90608401610efe565b50505050565b6000610ffd826040518060400160405280602081526020017f5361666545524332303a206c6f772d6c6576656c2063616c6c206661696c6564815250856001600160a01b031661107a9092919063ffffffff16565b805190915015610f35578080602001905181019061101b9190611961565b610f355760405162461bcd60e51b815260206004820152602a60248201527f5361666545524332303a204552433230206f7065726174696f6e20646964206e6044820152691bdd081cdd58d8d9595960b21b606482015260840161039f565b6060610d31848460008585600080866001600160a01b031685876040516110a191906119aa565b60006040518083038185875af1925050503d80600081146110de576040519150601f19603f3d011682016040523d82523d6000602084013e6110e3565b606091505b50915091506110f4878383876110ff565b979650505050505050565b6060831561116b578251611164576001600160a01b0385163b6111645760405162461bcd60e51b815260206004820152601d60248201527f416464726573733a2063616c6c20746f206e6f6e2d636f6e7472616374000000604482015260640161039f565b5081610d31565b610d3183838151156111805781518083602001fd5b8060405162461bcd60e51b815260040161039f91906119c6565b6001600160a01b0381168114610b8257600080fd5b80356111ba8161119a565b919050565b600080604083850312156111d257600080fd5b82356111dd8161119a565b946020939093013593505050565b60008060006060848603121561120057600080fd5b833561120b8161119a565b95602085013595506040909401359392505050565b803561ffff811681146111ba57600080fd5b60008083601f84011261124457600080fd5b50813567ffffffffffffffff81111561125c57600080fd5b60208301915083602082850101111561127457600080fd5b9250929050565b60006060828403121561128d57600080fd5b50919050565b60008060008060008060008060008060006101608c8e0312156112b557600080fd5b6112bf8c3561119a565b8b359a506112cf60208d01611220565b995067ffffffffffffffff8060408e013511156112eb57600080fd5b6112fb8e60408f01358f01611232565b909a50985060608d0135975060808d0135965061131b60a08e013561119a565b60a08d0135955061132e60c08e016111af565b94508060e08e0135111561134157600080fd5b506113528d60e08e01358e01611232565b90935091506113658d6101008e0161127b565b90509295989b509295989b9093969950565b60006020828403121561138957600080fd5b81356113948161119a565b9392505050565b6000806000806000806000610120888a0312156113b757600080fd5b87356113c28161119a565b96506113d060208901611220565b955060408801359450606088013593506080880135925060a088013567ffffffffffffffff81111561140157600080fd5b61140d8a828b0161127b565b92505061141d8960c08a0161127b565b905092959891949750929550565b8015158114610b8257600080fd5b600080600080600080600080610120898b03121561145657600080fd5b88356114618161119a565b975061146f60208a01611220565b96506040890135955060608901359450608089013561148d8161142b565b935060a089013567ffffffffffffffff8111156114a957600080fd5b6114b58b828c01611232565b90945092506114c990508a60c08b0161127b565b90509295985092959890939650565b6000602082840312156114ea57600080fd5b5035919050565b60008060008060008060008060006101208a8c03121561151057600080fd5b893561151b8161119a565b985061152960208b01611220565b975060408a013567ffffffffffffffff8082111561154657600080fd5b6115528d838e01611232565b909950975060608c0135965060808c0135915061156e8261142b565b90945060a08b0135908082111561158457600080fd5b506115918c828d01611232565b90945092506115a590508b60c08c0161127b565b90509295985092959850929598565b6000806000606084860312156115c957600080fd5b83356115d48161119a565b925060208401356115e48161119a565b929592945050506040919091013590565b634e487b7160e01b600052601160045260246000fd5b6000821982111561161e5761161e6115f5565b500190565b600081600019048311821515161561163d5761163d6115f5565b500290565b60008261165f57634e487b7160e01b600052601260045260246000fd5b500490565b600082821015611676576116766115f5565b500390565b81835281816020850137506000828201602090810191909152601f909101601f19169091010190565b600060018060a01b03808c16835261ffff8b16602084015260e060408401526116d160e084018a8c61167b565b886060850152818816608085015281871660a085015283810360c08501526116fa81868861167b565b9d9c50505050505050505050505050565b600081356117188161119a565b6001600160a01b0390811684526020830135906117348261119a565b166020840152604082013536839003601e1901811261175257600080fd5b8201803567ffffffffffffffff81111561176b57600080fd5b80360384131561177a57600080fd5b6060604086015261179260608601826020850161167b565b95945050505050565b60018060a01b038716815261ffff8616602082015284604082015283606082015282608082015260c060a082015260006117d860c083018461170b565b98975050505050505050565b6000602082840312156117f657600080fd5b81516113948161119a565b60006020828403121561181357600080fd5b5051919050565b61ffff87168152856020820152846040820152831515606082015260a0608082015260006117d860a08301848661167b565b6000806040838503121561185f57600080fd5b505080516020909101519092909150565b60018060a01b038616815261ffff8516602082015283604082015282606082015260a0608082015260006110f460a083018461170b565b61ffff8816815260a0602082015260006118c560a08301888a61167b565b866040840152851515606084015282810360808401526118e681858761167b565b9a9950505050505050505050565b60208082526023908201527f4f4654577261707065723a206e6f7420656e6f75676820616d6f756e74546f5360408201526207761760ec1b606082015260800190565b60006020828403121561194957600080fd5b81356001600160f01b03198116811461139457600080fd5b60006020828403121561197357600080fd5b81516113948161142b565b60005b83811015611999578181015183820152602001611981565b83811115610fa25750506000910152565b600082516119bc81846020870161197e565b9190910192915050565b60208152600082518060208401526119e581604085016020870161197e565b601f01601f1916919091016040019291505056fea2646970667358221220f7a20520b70f4bc7a961dc5eebcf92dac798396d16d72649b05c340401291fa364736f6c634300080c0033",
  "devdoc": {
    "kind": "dev",
    "methods": {
      "owner()": {
        "details": "Returns the address of the current owner."
      },
      "renounceOwnership()": {
        "details": "Leaves the contract without owner. It will not be possible to call `onlyOwner` functions anymore. Can only be called by the current owner. NOTE: Renouncing ownership will leave the contract without an owner, thereby removing any functionality that is only available to the owner."
      },
      "transferOwnership(address)": {
        "details": "Transfers ownership of the contract to a new account (`newOwner`). Can only be called by the current owner."
      }
    },
    "version": 1
  },
  "userdoc": {
    "kind": "user",
    "methods": {},
    "version": 1
  },
  "storageLayout": {
    "storage": [
      {
        "astId": 245,
        "contract": "contracts/OFTWrapper.sol:OFTWrapper",
        "label": "_owner",
        "offset": 0,
        "slot": "0",
        "type": "t_address"
      },
      {
        "astId": 361,
        "contract": "contracts/OFTWrapper.sol:OFTWrapper",
        "label": "_status",
        "offset": 0,
        "slot": "1",
        "type": "t_uint256"
      },
      {
        "astId": 1194,
        "contract": "contracts/OFTWrapper.sol:OFTWrapper",
        "label": "defaultBps",
        "offset": 0,
        "slot": "2",
        "type": "t_uint256"
      },
      {
        "astId": 1198,
        "contract": "contracts/OFTWrapper.sol:OFTWrapper",
        "label": "oftBps",
        "offset": 0,
        "slot": "3",
        "type": "t_mapping(t_address,t_uint256)"
      }
    ],
    "types": {
      "t_address": {
        "encoding": "inplace",
        "label": "address",
        "numberOfBytes": "20"
      },
      "t_mapping(t_address,t_uint256)": {
        "encoding": "mapping",
        "key": "t_address",
        "label": "mapping(address => uint256)",
        "numberOfBytes": "32",
        "value": "t_uint256"
      },
      "t_uint256": {
        "encoding": "inplace",
        "label": "uint256",
        "numberOfBytes": "32"
      }
    }
  }
}