{
  "address": "0x67E001F9598aabdED6c55780388f27a03D773F77",
  "abi": [
    {
      "inputs": [
        {
          "internalType": "uint256",
          "name": "_defaultBps",
          "type": "uint256"
        }
      ],
      "stateMutability": "nonpayable",
      "type": "constructor"
    },
    {
      "anonymous": false,
      "inputs": [
        {
          "indexed": true,
          "internalType": "address",
          "name": "previousOwner",
          "type": "address"
        },
        {
          "indexed": true,
          "internalType": "address",
          "name": "newOwner",
          "type": "address"
        }
      ],
      "name": "OwnershipTransferred",
      "type": "event"
    },
    {
      "anonymous": false,
      "inputs": [
        {
          "indexed": true,
          "internalType": "address",
          "name": "oft",
          "type": "address"
        },
        {
          "indexed": false,
          "internalType": "address",
          "name": "to",
          "type": "address"
        },
        {
          "indexed": false,
          "internalType": "uint256",
          "name": "amount",
          "type": "uint256"
        }
      ],
      "name": "WrapperFeeWithdrawn",
      "type": "event"
    },
    {
      "anonymous": false,
      "inputs": [
        {
          "indexed": true,
          "internalType": "bytes2",
          "name": "partnerId",
          "type": "bytes2"
        },
        {
          "indexed": false,
          "internalType": "uint256",
          "name": "wrapperFee",
          "type": "uint256"
        },
        {
          "indexed": false,
          "internalType": "uint256",
          "name": "callerFee",
          "type": "uint256"
        }
      ],
      "name": "WrapperFees",
      "type": "event"
    },
    {
      "inputs": [],
      "name": "BPS_DENOMINATOR",
      "outputs": [
        {
          "internalType": "uint256",
          "name": "",
          "type": "uint256"
        }
      ],
      "stateMutability": "view",
      "type": "function"
    },
    {
      "inputs": [],
      "name": "MAX_UINT",
      "outputs": [
        {
          "internalType": "uint256",
          "name": "",
          "type": "uint256"
        }
      ],
      "stateMutability": "view",
      "type": "function"
    },
    {
      "inputs": [],
      "name": "defaultBps",
      "outputs": [
        {
          "internalType": "uint256",
          "name": "",
          "type": "uint256"
        }
      ],
      "stateMutability": "view",
      "type": "function"
    },
    {
      "inputs": [
        {
          "internalType": "address",
          "name": "_oft",
          "type": "address"
        },
        {
          "internalType": "uint16",
          "name": "_dstChainId",
          "type": "uint16"
        },
        {
          "internalType": "bytes",
          "name": "_toAddress",
          "type": "bytes"
        },
        {
          "internalType": "uint256",
          "name": "_amount",
          "type": "uint256"
        },
        {
          "internalType": "bool",
          "name": "_useZro",
          "type": "bool"
        },
        {
          "internalType": "bytes",
          "name": "_adapterParams",
          "type": "bytes"
        },
        {
          "components": [
            {
              "internalType": "uint256",
              "name": "callerBps",
              "type": "uint256"
            },
            {
              "internalType": "address",
              "name": "caller",
              "type": "address"
            },
            {
              "internalType": "bytes2",
              "name": "partnerId",
              "type": "bytes2"
            }
          ],
          "internalType": "struct IOFTWrapper.FeeObj",
          "name": "_feeObj",
          "type": "tuple"
        }
      ],
      "name": "estimateSendFee",
      "outputs": [
        {
          "internalType": "uint256",
          "name": "nativeFee",
          "type": "uint256"
        },
        {
          "internalType": "uint256",
          "name": "zroFee",
          "type": "uint256"
        }
      ],
      "stateMutability": "view",
      "type": "function"
    },
    {
      "inputs": [
        {
          "internalType": "address",
          "name": "_oft",
          "type": "address"
        },
        {
          "internalType": "uint16",
          "name": "_dstChainId",
          "type": "uint16"
        },
        {
          "internalType": "bytes32",
          "name": "_toAddress",
          "type": "bytes32"
        },
        {
          "internalType": "uint256",
          "name": "_amount",
          "type": "uint256"
        },
        {
          "internalType": "bool",
          "name": "_useZro",
          "type": "bool"
        },
        {
          "internalType": "bytes",
          "name": "_adapterParams",
          "type": "bytes"
        },
        {
          "components": [
            {
              "internalType": "uint256",
              "name": "callerBps",
              "type": "uint256"
            },
            {
              "internalType": "address",
              "name": "caller",
              "type": "address"
            },
            {
              "internalType": "bytes2",
              "name": "partnerId",
              "type": "bytes2"
            }
          ],
          "internalType": "struct IOFTWrapper.FeeObj",
          "name": "_feeObj",
          "type": "tuple"
        }
      ],
      "name": "estimateSendFeeV2",
      "outputs": [
        {
          "internalType": "uint256",
          "name": "nativeFee",
          "type": "uint256"
        },
        {
          "internalType": "uint256",
          "name": "zroFee",
          "type": "uint256"
        }
      ],
      "stateMutability": "view",
      "type": "function"
    },
    {
      "inputs": [
        {
          "internalType": "address",
          "name": "_oft",
          "type": "address"
        },
        {
          "internalType": "uint256",
          "name": "_amount",
          "type": "uint256"
        },
        {
          "internalType": "uint256",
          "name": "_callerBps",
          "type": "uint256"
        }
      ],
      "name": "getAmountAndFees",
      "outputs": [
        {
          "internalType": "uint256",
          "name": "amount",
          "type": "uint256"
        },
        {
          "internalType": "uint256",
          "name": "wrapperFee",
          "type": "uint256"
        },
        {
          "internalType": "uint256",
          "name": "callerFee",
          "type": "uint256"
        }
      ],
      "stateMutability": "view",
      "type": "function"
    },
    {
      "inputs": [
        {
          "internalType": "address",
          "name": "",
          "type": "address"
        }
      ],
      "name": "oftBps",
      "outputs": [
        {
          "internalType": "uint256",
          "name": "",
          "type": "uint256"
        }
      ],
      "stateMutability": "view",
      "type": "function"
    },
    {
      "inputs": [],
      "name": "owner",
      "outputs": [
        {
          "internalType": "address",
          "name": "",
          "type": "address"
        }
      ],
      "stateMutability": "view",
      "type": "function"
    },
    {
      "inputs": [],
      "name": "renounceOwnership",
      "outputs": [],
      "stateMutability": "nonpayable",
      "type": "function"
    },
    {
      "inputs": [
        {
          "internalType": "address",
          "name": "_oft",
          "type": "address"
        },
        {
          "internalType": "uint16",
          "name": "_dstChainId",
          "type": "uint16"
        },
        {
          "internalType": "bytes",
          "name": "_toAddress",
          "type": "bytes"
        },
        {
          "internalType": "uint256",
          "name": "_amount",
          "type": "uint256"
        },
        {
          "internalType": "uint256",
          "name": "_minAmount",
          "type": "uint256"
        },
        {
          "internalType": "address payable",
          "name": "_refundAddress",
          "type": "address"
        },
        {
          "internalType": "address",
          "name": "_zroPaymentAddress",
          "type": "address"
        },
        {
          "internalType": "bytes",
          "name": "_adapterParams",
          "type": "bytes"
        },
        {
          "components": [
            {
              "internalType": "uint256",
              "name": "callerBps",
              "type": "uint256"
            },
            {
              "internalType": "address",
              "name": "caller",
              "type": "address"
            },
            {
              "internalType": "bytes2",
              "name": "partnerId",
              "type": "bytes2"
            }
          ],
          "internalType": "struct IOFTWrapper.FeeObj",
          "name": "_feeObj",
          "type": "tuple"
        }
      ],
      "name": "sendOFT",
      "outputs": [],
      "stateMutability": "payable",
      "type": "function"
    },
    {
      "inputs": [
        {
          "internalType": "address",
          "name": "_oft",
          "type": "address"
        },
        {
          "internalType": "uint16",
          "name": "_dstChainId",
          "type": "uint16"
        },
        {
          "internalType": "bytes32",
          "name": "_toAddress",
          "type": "bytes32"
        },
        {
          "internalType": "uint256",
          "name": "_amount",
          "type": "uint256"
        },
        {
          "internalType": "uint256",
          "name": "_minAmount",
          "type": "uint256"
        },
        {
          "components": [
            {
              "internalType": "address payable",
              "name": "refundAddress",
              "type": "address"
            },
            {
              "internalType": "address",
              "name": "zroPaymentAddress",
              "type": "address"
            },
            {
              "internalType": "bytes",
              "name": "adapterParams",
              "type": "bytes"
            }
          ],
          "internalType": "struct ICommonOFT.LzCallParams",
          "name": "_callParams",
          "type": "tuple"
        },
        {
          "components": [
            {
              "internalType": "uint256",
              "name": "callerBps",
              "type": "uint256"
            },
            {
              "internalType": "address",
              "name": "caller",
              "type": "address"
            },
            {
              "internalType": "bytes2",
              "name": "partnerId",
              "type": "bytes2"
            }
          ],
          "internalType": "struct IOFTWrapper.FeeObj",
          "name": "_feeObj",
          "type": "tuple"
        }
      ],
      "name": "sendOFTV2",
      "outputs": [],
      "stateMutability": "payable",
      "type": "function"
    },
    {
      "inputs": [
        {
          "internalType": "uint256",
          "name": "_defaultBps",
          "type": "uint256"
        }
      ],
      "name": "setDefaultBps",
      "outputs": [],
      "stateMutability": "nonpayable",
      "type": "function"
    },
    {
      "inputs": [
        {
          "internalType": "address",
          "name": "_oft",
          "type": "address"
        },
        {
          "internalType": "uint256",
          "name": "_bps",
          "type": "uint256"
        }
      ],
      "name": "setOFTBps",
      "outputs": [],
      "stateMutability": "nonpayable",
      "type": "function"
    },
    {
      "inputs": [
        {
          "internalType": "address",
          "name": "newOwner",
          "type": "address"
        }
      ],
      "name": "transferOwnership",
      "outputs": [],
      "stateMutability": "nonpayable",
      "type": "function"
    },
    {
      "inputs": [
        {
          "internalType": "address",
          "name": "_oft",
          "type": "address"
        },
        {
          "internalType": "address",
          "name": "_to",
          "type": "address"
        },
        {
          "internalType": "uint256",
          "name": "_amount",
          "type": "uint256"
        }
      ],
      "name": "withdrawFees",
      "outputs": [],
      "stateMutability": "nonpayable",
      "type": "function"
    }
  ],
  "transactionHash": "0x881f60ab694f7589ea05504a6fb1589a7fd8ae56ba7b1a53e6b7b264c8c308c0",
  "args": [
    2
  ],
  "numDeployments": 2,
  "solcInputHash": "3574abf673e5dd0b8cd22540ea358979",
  "bytecode": "0x608060405234801561001057600080fd5b5060405161162038038061162083398101604081905261002f916100e9565b61003833610099565b6001805561271081106100915760405162461bcd60e51b815260206004820152601e60248201527f4f4654577261707065723a2064656661756c74427073203e3d20313030250000604482015260640160405180910390fd5b600255610102565b600080546001600160a01b038381166001600160a01b0319831681178455604051919092169283917f8be0079c531659141344cd1fd0a4f28419497f9722a3daafe3b4186f6b6457e09190a35050565b6000602082840312156100fb57600080fd5b5051919050565b61150f806101116000396000f3fe6080604052600436106100e85760003560e01c8063a46d74bc1161008a578063e1bafc8011610059578063e1bafc801461026e578063e55dc4e61461028e578063e5b5019a146102ae578063f2fde38b146102c457600080fd5b8063a46d74bc1461020f578063a8198c001461022f578063d1b308dc14610242578063e1a452181461025857600080fd5b8063715018a6116100c6578063715018a6146101625780637a751182146101775780638d8c915c146101b25780638da5cb5b146101e757600080fd5b80630c3d2756146100ed57806317696f641461010f578063498eff641461014f575b600080fd5b3480156100f957600080fd5b5061010d610108366004610d61565b6102e4565b005b34801561011b57600080fd5b5061012f61012a366004610d8d565b61036a565b604080519384526020840192909252908201526060015b60405180910390f35b61010d61015d366004610e35565b6104c0565b34801561016e57600080fd5b5061010d61055e565b34801561018357600080fd5b506101a4610192366004610f19565b60036020526000908152604090205481565b604051908152602001610146565b3480156101be57600080fd5b506101d26101cd366004610f4b565b610572565b60408051928352602083019190915201610146565b3480156101f357600080fd5b506000546040516001600160a01b039091168152602001610146565b34801561021b57600080fd5b5061010d61022a366004610fea565b61060f565b61010d61023d366004611003565b61066d565b34801561024e57600080fd5b506101a460025481565b34801561026457600080fd5b506101a461271081565b34801561027a57600080fd5b506101d2610289366004611093565b6106ff565b34801561029a57600080fd5b5061010d6102a9366004611156565b61079f565b3480156102ba57600080fd5b506101a460001981565b3480156102d057600080fd5b5061010d6102df366004610f19565b610806565b6102ec61087f565b6127108110806102fd575060001981145b61034e5760405162461bcd60e51b815260206004820181905260248201527f4f4654577261707065723a206f66744270735b5f6f66745d203e3d203130302560448201526064015b60405180910390fd5b6001600160a01b03909116600090815260036020526040902055565b6001600160a01b038316600090815260036020526040812054819081908190600019141561039a575060006103dc565b6001600160a01b038716600090815260036020526040902054156103d757506001600160a01b0386166000908152600360205260409020546103dc565b506002545b6127106103e986836111ad565b106104365760405162461bcd60e51b815260206004820152601b60248201527f4f4654577261707065723a2046656520627073203e3d203130302500000000006044820152606401610345565b6000811161044557600061045c565b61271061045282886111c5565b61045c91906111e4565b92506000851161046d576000610484565b61271061047a86886111c5565b61048491906111e4565b915060008311806104955750600082115b61049f57856104b4565b816104aa8488611206565b6104b49190611206565b93505093509350939050565b6104c86108d9565b60006104d68c898985610933565b90508b6001600160a01b0316635190563634338e8e8e878d8d8d8d6040518b63ffffffff1660e01b815260040161051599989796959493929190611246565b6000604051808303818588803b15801561052e57600080fd5b505af1158015610542573d6000803e3d6000fd5b50505050505061055160018055565b5050505050505050505050565b61056661087f565b6105706000610a54565b565b600080806105828b89863561036a565b5050604051630d94982d60e21b81529091506001600160a01b038c169063365260b4906105bd908d908d9086908d908d908d906004016112ad565b6040805180830381865afa1580156105d9573d6000803e3d6000fd5b505050506040513d601f19601f820116820180604052508101906105fd91906112eb565b92509250509850989650505050505050565b61061761087f565b61271081106106685760405162461bcd60e51b815260206004820152601e60248201527f4f4654577261707065723a2064656661756c74427073203e3d203130302500006044820152606401610345565b600255565b6106756108d9565b600061068388868685610933565b9050876001600160a01b031663695ef6bf34338a8a86896040518763ffffffff1660e01b81526004016106ba95949392919061130f565b6000604051808303818588803b1580156106d357600080fd5b505af11580156106e7573d6000803e3d6000fd5b5050505050506106f660018055565b50505050505050565b6000808061070f8c89863561036a565b5050604051632a205e3d60e01b81529091506001600160a01b038d1690632a205e3d9061074c908e908e908e9087908e908e908e906004016113ca565b6040805180830381865afa158015610768573d6000803e3d6000fd5b505050506040513d601f19601f8201168201806040525081019061078c91906112eb565b9250925050995099975050505050505050565b6107a761087f565b6107bb6001600160a01b0384168383610aa4565b604080516001600160a01b038481168252602082018490528516917ff6514f9f283faac4cf3f3a6a702c116227ad0f2c727fb336e4c10b418bc6d613910160405180910390a2505050565b61080e61087f565b6001600160a01b0381166108735760405162461bcd60e51b815260206004820152602660248201527f4f776e61626c653a206e6577206f776e657220697320746865207a65726f206160448201526564647265737360d01b6064820152608401610345565b61087c81610a54565b50565b6000546001600160a01b031633146105705760405162461bcd60e51b815260206004820181905260248201527f4f776e61626c653a2063616c6c6572206973206e6f7420746865206f776e65726044820152606401610345565b6002600154141561092c5760405162461bcd60e51b815260206004820152601f60248201527f5265656e7472616e637947756172643a207265656e7472616e742063616c6c006044820152606401610345565b6002600155565b60008080806109448888873561036a565b925092509250858310156109ad5760405162461bcd60e51b815260206004820152602a60248201527f4f4654577261707065723a20616d6f756e7420746f207472616e73666572203c604482015269081b5a5b905b5bdd5b9d60b21b6064820152608401610345565b876109c36001600160a01b038216333086610b0c565b6109e9336109d76040890160208a01610f19565b6001600160a01b038416919085610b0c565b6109f96060870160408801611417565b6001600160f01b0319167facbd20f198decc6ad6219bb77408f1c87e3adaf1892f7ae3bc1bd795d7833bfb8484604051610a3d929190918252602082015260400190565b60405180910390a25091925050505b949350505050565b600080546001600160a01b038381166001600160a01b0319831681178455604051919092169283917f8be0079c531659141344cd1fd0a4f28419497f9722a3daafe3b4186f6b6457e09190a35050565b6040516001600160a01b038316602482015260448101829052610b0790849063a9059cbb60e01b906064015b60408051601f198184030181529190526020810180516001600160e01b03166001600160e01b031990931692909217909152610b4a565b505050565b6040516001600160a01b0380851660248301528316604482015260648101829052610b449085906323b872dd60e01b90608401610ad0565b50505050565b6000610b9f826040518060400160405280602081526020017f5361666545524332303a206c6f772d6c6576656c2063616c6c206661696c6564815250856001600160a01b0316610c1c9092919063ffffffff16565b805190915015610b075780806020019051810190610bbd9190611441565b610b075760405162461bcd60e51b815260206004820152602a60248201527f5361666545524332303a204552433230206f7065726174696f6e20646964206e6044820152691bdd081cdd58d8d9595960b21b6064820152608401610345565b6060610a4c848460008585600080866001600160a01b03168587604051610c43919061148a565b60006040518083038185875af1925050503d8060008114610c80576040519150601f19603f3d011682016040523d82523d6000602084013e610c85565b606091505b5091509150610c9687838387610ca1565b979650505050505050565b60608315610d0d578251610d06576001600160a01b0385163b610d065760405162461bcd60e51b815260206004820152601d60248201527f416464726573733a2063616c6c20746f206e6f6e2d636f6e74726163740000006044820152606401610345565b5081610a4c565b610a4c8383815115610d225781518083602001fd5b8060405162461bcd60e51b815260040161034591906114a6565b6001600160a01b038116811461087c57600080fd5b8035610d5c81610d3c565b919050565b60008060408385031215610d7457600080fd5b8235610d7f81610d3c565b946020939093013593505050565b600080600060608486031215610da257600080fd5b8335610dad81610d3c565b95602085013595506040909401359392505050565b803561ffff81168114610d5c57600080fd5b60008083601f840112610de657600080fd5b50813567ffffffffffffffff811115610dfe57600080fd5b602083019150836020828501011115610e1657600080fd5b9250929050565b600060608284031215610e2f57600080fd5b50919050565b60008060008060008060008060008060006101608c8e031215610e5757600080fd5b610e618c35610d3c565b8b359a50610e7160208d01610dc2565b995067ffffffffffffffff8060408e01351115610e8d57600080fd5b610e9d8e60408f01358f01610dd4565b909a50985060608d0135975060808d01359650610ebd60a08e0135610d3c565b60a08d01359550610ed060c08e01610d51565b94508060e08e01351115610ee357600080fd5b50610ef48d60e08e01358e01610dd4565b9093509150610f078d6101008e01610e1d565b90509295989b509295989b9093969950565b600060208284031215610f2b57600080fd5b8135610f3681610d3c565b9392505050565b801515811461087c57600080fd5b600080600080600080600080610120898b031215610f6857600080fd5b8835610f7381610d3c565b9750610f8160208a01610dc2565b965060408901359550606089013594506080890135610f9f81610f3d565b935060a089013567ffffffffffffffff811115610fbb57600080fd5b610fc78b828c01610dd4565b9094509250610fdb90508a60c08b01610e1d565b90509295985092959890939650565b600060208284031215610ffc57600080fd5b5035919050565b6000806000806000806000610120888a03121561101f57600080fd5b873561102a81610d3c565b965061103860208901610dc2565b955060408801359450606088013593506080880135925060a088013567ffffffffffffffff81111561106957600080fd5b6110758a828b01610e1d565b9250506110858960c08a01610e1d565b905092959891949750929550565b60008060008060008060008060006101208a8c0312156110b257600080fd5b89356110bd81610d3c565b98506110cb60208b01610dc2565b975060408a013567ffffffffffffffff808211156110e857600080fd5b6110f48d838e01610dd4565b909950975060608c0135965060808c0135915061111082610f3d565b90945060a08b0135908082111561112657600080fd5b506111338c828d01610dd4565b909450925061114790508b60c08c01610e1d565b90509295985092959850929598565b60008060006060848603121561116b57600080fd5b833561117681610d3c565b9250602084013561118681610d3c565b929592945050506040919091013590565b634e487b7160e01b600052601160045260246000fd5b600082198211156111c0576111c0611197565b500190565b60008160001904831182151516156111df576111df611197565b500290565b60008261120157634e487b7160e01b600052601260045260246000fd5b500490565b60008282101561121857611218611197565b500390565b81835281816020850137506000828201602090810191909152601f909101601f19169091010190565b600060018060a01b03808c16835261ffff8b16602084015260e0604084015261127360e084018a8c61121d565b886060850152818816608085015281871660a085015283810360c085015261129c81868861121d565b9d9c50505050505050505050505050565b61ffff87168152856020820152846040820152831515606082015260a0608082015260006112df60a08301848661121d565b98975050505050505050565b600080604083850312156112fe57600080fd5b505080516020909101519092909150565b6001600160a01b03868116825261ffff86166020830152604082018590526060820184905260a06080830152600090833561134981610d3c565b811660a0840152602084013561135e81610d3c565b1660c0830152604083013536849003601e1901811261137c57600080fd5b8301803567ffffffffffffffff81111561139557600080fd5b8036038513156113a457600080fd5b606060e08501526113bd6101008501826020850161121d565b9998505050505050505050565b61ffff8816815260a0602082015260006113e860a08301888a61121d565b8660408401528515156060840152828103608084015261140981858761121d565b9a9950505050505050505050565b60006020828403121561142957600080fd5b81356001600160f01b031981168114610f3657600080fd5b60006020828403121561145357600080fd5b8151610f3681610f3d565b60005b83811015611479578181015183820152602001611461565b83811115610b445750506000910152565b6000825161149c81846020870161145e565b9190910192915050565b60208152600082518060208401526114c581604085016020870161145e565b601f01601f1916919091016040019291505056fea2646970667358221220e34b67937d9580517b38bf39ea41cc0a050c673e22583383a21de7975521c09664736f6c634300080c0033",
  "devdoc": {
    "kind": "dev",
    "methods": {
      "owner()": {
        "details": "Returns the address of the current owner."
      },
      "renounceOwnership()": {
        "details": "Leaves the contract without owner. It will not be possible to call `onlyOwner` functions anymore. Can only be called by the current owner. NOTE: Renouncing ownership will leave the contract without an owner, thereby removing any functionality that is only available to the owner."
      },
      "transferOwnership(address)": {
        "details": "Transfers ownership of the contract to a new account (`newOwner`). Can only be called by the current owner."
      }
    },
    "version": 1
  },
  "userdoc": {
    "kind": "user",
    "methods": {},
    "version": 1
  },
  "storageLayout": {
    "storage": [
      {
        "astId": 201,
        "contract": "contracts/OFTWrapper.sol:OFTWrapper",
        "label": "_owner",
        "offset": 0,
        "slot": "0",
        "type": "t_address"
      },
      {
        "astId": 317,
        "contract": "contracts/OFTWrapper.sol:OFTWrapper",
        "label": "_status",
        "offset": 0,
        "slot": "1",
        "type": "t_uint256"
      },
      {
        "astId": 1149,
        "contract": "contracts/OFTWrapper.sol:OFTWrapper",
        "label": "defaultBps",
        "offset": 0,
        "slot": "2",
        "type": "t_uint256"
      },
      {
        "astId": 1153,
        "contract": "contracts/OFTWrapper.sol:OFTWrapper",
        "label": "oftBps",
        "offset": 0,
        "slot": "3",
        "type": "t_mapping(t_address,t_uint256)"
      }
    ],
    "types": {
      "t_address": {
        "encoding": "inplace",
        "label": "address",
        "numberOfBytes": "20"
      },
      "t_mapping(t_address,t_uint256)": {
        "encoding": "mapping",
        "key": "t_address",
        "label": "mapping(address => uint256)",
        "numberOfBytes": "32",
        "value": "t_uint256"
      },
      "t_uint256": {
        "encoding": "inplace",
        "label": "uint256",
        "numberOfBytes": "32"
      }
    }
  }
}